S00F000078317A5F6332312E73726563CD
S1130000F84700202D01000029010000290100000B
S113001000000000000000000000000000000000DC
S113002000000000000000000000000029010000A2
S11300300000000000000000290100002901000068
S11300402901000029010000290100002901000004
S1130050290100002901000029010000391B0000CA
S1130060290100002901000029010000C11E00002F
S1130070D51E00000000000000000000311900003F
S113008000000000290100002901000029010000EE
S1130090A12000002901000029010000290100001D
S11300A029010000290100002901000029010000A4
S11300B029010000290100002901000010B5064CA7
S11300C02378002B07D1054B002B02D0044800E015
S11300D000BF0123237010BD800000200000000039
S11300E080310000084B10B5002B03D007490848A5
S11300F000E000BF07480368002B00D110BD064B89
S1130100002BFBD09847F9E7000000008400002092
S113011080310000803100000000000010B5014B68
S1130120984710BD11100000FEE700000F48104969
S113013070B5884204D000230E4CCA18A2420ED3D4
S113014000210D4B0D4A93420DD3FF210C4B0D4A58
S11301508B4393600C4B98470C4B9847FEE7C5586C
S113016004331560E9E702C3EDE7C04680310000BF
S1130170000000207800002080000020F4270020E8
S11301800000000000ED00E001230000192200003F
S1130190F0B589B002AB069303680400A4331A686F
S11301A07F2300263F271A400192019A2368964232
S11301B00BD1B4331A687F2300263F271A400192DB
S11301C0019B9E421CD109B0F0BDA4331D6804A953
S11301D0194B20009847194A2D0A13683D400133F2
S11301E013602368A8331A68BA4315431D60144B7F
S11301F05B79002B02D004A8124B98470136D4E750
S1130200236804A9B4331D6820000B4B98470B4A9C
S11302102D0A13683D40013313602368B8331A680C
S1130220BA4315431D60064B5B79002B02D004A82A
S1130230044B98470136C3E7ED100000002400206A
S1130240F8240020C50A0000C0238022DB05D20068
S113025073B55A619A608223104ADB059A62C02200
S1130260002412060E4D9A620E4B0F4E009322008C
S11302706B46210028000194B04701220B4B11006A
S1130280009328006B460194B047094A21002800D6
S1130290084B98472800084B984773BD000400405A
S11302A044250020DF07000035110000FFFFFF1F79
S11302B09101000005110000E11000000022014B33
S11302C01A707047F82400200022014B1A707047FE
S11302D09C0000200122044B1A705A711A710022EA
S11302E09A70DA705A707047F824002010B5030031
S11302F00A00002809D0002907D0044C1900201D49
S1130300034B984723690133236110BD9C000020EF
S1130310D90D000070B5051E0ED0084B1B78002BBC
S11303200AD0074B9847074C0200074B201D2900B1
S1130330984723690133236170BDC046F824002027
S1130340F92400009C000020D90D000037B580225C
S11303500B49520114310B4B0B4898470B4C0C4B77
S113036001A9200098470B4D0B4A00212000A84703
S11303700A4A01212000A8472000094B984737BDAD
S11303809C00002079080000102500207025002022
S1130390AD140000B5140000E9030000C902000018
S11303A09D1400000FB400B5C3B044AA02CA02A849
S11303B00192044B984702A8034B984743B008BCEA
S11303C004B0184769250000150300008022C023EB
S11303D010B51205DB059A610148024B984710BD20
S11303E0F62B0000A503000070B5114C92B020005C
S11303F0104B9847061E15DD200001A90E4B9847A7
S11304000024402202A901980C4B9847051E09DDDF
S1130410020002A90A480B4B98470C3004D10A4841
S11304200A4B984712B070BD6419A642E9DCF9E79B
S113043070250020FD140000AD14000049110000D7
S1130440102500209D080000352C0000A5030000A5
S1130450F0B5CBB0C04B09A89847C04C6368002BDB
S11304601AD02378002B17D10AA9BD4BBD48984751
S11304700123237063680A985D689968AAB2BA4B2D
S11304809847854202D0B948B94B9847B94B201DCB
S113049098472369013B236109A8B74B98478022F9
S11304A00AA95200B548B64B9847059000280FDBBF
S11304B000230493049B059A93420FD1B14B9B787C
S11304C0002B09D06B460AA8197CAF4B984703E070
S11304D00599AE48A64B98474BB0F0BDAC4C049977
S11304E063690AAA8A5CE1180A76242A02D00A2AD5
S11304F000D026E10025E2185576AB4234D0200026
S1130500A04F18303B780693AB421FD1A149A24BB0
S11305109847A8422ED0A14CA14D26001C3631008C
S1130520A04B280098476A462300127E2C331A7089
S11305309D4B310063629D4B2800A3629C4B9847FE
S113054001239C483B708A4B98470DE09A49924B93
S1130550984700280ED09948854B98478F49904872
S11305601C31904B98473D700022894B5A61049B83
S113057001339EE72600183691493000864DA8477E
S11305800790002803D001238E487B70DBE78E4957
S11305903000A847002805D06A467A4B127F8B4862
S11305A05A70D0E78A493000A847071E04D00122B8
S11305B0744B88485A71C6E787493000A847002819
S11305C003D0704B85485F71BDE785493000A8476B
S11305D0071E04D001226B4B82481A71B3E782498B
S11305E03000A847002803D0664B80481F71AAE753
S11305F07F493000A847071E04D00122614B7D4883
S1130600DA70A0E77C493000A847002803D05D4B8E
S11306107A48DF7097E77A493000A847002825D048
S1130620069B7849002B00D177495648754A437890
S1130630002B00D1744A0479724B002C00D1724B08
S11306404579704C002D00D16F4C86786D4D002E8D
S113065000D16D4DC6786B48002E00D16A480290D7
S1130660009401956948424CA0477DE768493000F1
S1130670A847002806D0C0238022DB0512059A6112
S1130680644860E7183464492000434DA847061EB7
S113069006D0C0238022DB0512055A615F4852E769
S11306A05F492000A847002812D05E48304B984785
S11306B0C0238022DB0512055A615B495B4B384835
S11306C0CB60FA239B008B60394B0E7498474BE741
S11306D057492000A847002807D0564B56481968A8
S11306E0564B1A68224B98473EE755492000A847C5
S11306F0002805D0534B54481968544B1A68F1E745
S113070053492000A847002805D0524B52481A6884
S1130710124B1969E6E751492000A847002802D086
S11307204F4B9847FEE74F492000A847002800D1C7
S11307301AE70F4C4C48A0474C48A0474C48A047E8
S113074012E70133FF2B01D8636110E70023494806
S11307506361074B98470AE7751000009C0000206E
S1130760AD1400007025002041110000692C000028
S1130770A5030000C10D0000831000001025002017
S113078029090000F8240020990A00007C2C0000AC
S11307909C1000209D2C0000072500009C110020C7
S11307A010260020C112000030750000BD020000B8
S11307B049120000A72C0000B42C0000BD2C00003E
S11307C0C92C0000CF2C0000ED2C0000F42C0000FC
S11307D0132D00001A2D0000362D00003E2D0000C0
S11307E05B2D0000622D00007E2D0000862D000090
S11307F0A32D0000AA2D0000C72D0000CF2D00005E
S1130800ED2D00005A2C0000612C0000F72D000093
S1130810172E0000242E0000322E0000402E00006F
S1130820502E00005C2E000020250020CD03000087
S1130830702E0000002400207C2E0000E412002012
S1130840952E0000E0120020A22E0000FC130020D0
S1130850BD2E0000F4120020CB2E0000E62E000076
S113086091190000F02E0000FF2E0000092F000057
S1130870182F0000272F000000280AD0002908D0D4
S1130880002A09D00023C16082600360436018001D
S113089070470E204042FBE71F20FBE7F7B504003A
S11308A00E001500002822D0081E20D0002082420D
S11308B01DD06268A168AB182F008B4200D98F1A33
S11308C0E91B019121688A4204D9E81B884201D3BB
S11308D0002803D18A420BD28B4209D92B000E483F
S11308E00E4DA84700230C20236063604042FEBDE8
S11308F0E368310098183A00094B9847F119019AB6
S1130900074BE06898476368A168E818054B984767
S113091028006160EBE7C046462F0000A5030000F5
S113092071230000551A0000F7B505000F001600EA
S1130930041E1BD00C1E19D00024A24216D01B4B3F
S113094001A8984729686B68994211D25C1AB4428D
S113095000D93400EB68220059183800144B98472A
S11309602B681B192B6001A8124B98472000FEBD71
S11309709942F8D9AA689B185C1AB44200D9340089
S1130980561AA64200D92600EB68320059183800DE
S1130990074B9847A21BE968054BB81998472B6881
S11309A0A968E018044B98472960DCE7751000003B
S11309B07123000083100000551A00000022014B2F
S11309C01A707047CC110020044B00221900FF312B
S11309D09A60DA604A745A711A717047CC11002017
S11309E030B5104D8FB028000F4B9847041E16D019
S11309F069460E4B28009847A2B201A90C4B0098F7
S1130A0098470C4902004B69C3184B610A4801A975
S1130A100A4B98470C3002D109480A4B98470FB04B
S1130A2030BDC046C0250020FD140000AD140000F8
S1130A3049110000CC120020342500209D0800003C
S1130A407C2F0000A50300001FB569460368DA0087
S1130A50D20800925A00D20FDB0F0A714B7303794C
S1130A6005300B730290074B07489847011E04D0CA
S1130A700648074B984705B000BD064A9369013301
S1130A809361F8E7F910000044250020A02F00002E
S1130A90A5030000CC12002010B503000A000028B2
S1130AA00AD0002908D0054C19002000044B1C3042
S1130AB09847A36A0133A36210BDC046CC1200203C
S1130AC0D90D0000F0B5060087B000282FD00C2304
S1130AD0026802AD2B700192437B012B03D180236A
S1130AE01B06134301933379012B04D18023019A0C
S1130AF0DB05134301930A20347B0422A31D01A9BF
S1130B000F4F68446B70B8470F20B16822006844E7
S1130B10AC71B84700231A00211D994209DA21005B
S1130B202B190831DA71C9B22800064B984707B06F
S1130B30F0BDE818807801334240DBB2EDE7C046EF
S1130B4071230000990A00001FB569460368DA00A2
S1130B50D2080092DA0F5B00DB0F4A730B71037942
S1130B6005300B730290024B6846984705B000BDF0
S1130B70C50A0000F0B5584C8022210089B02C3100
S1130B8052005648564B9847564D009000283BDC7F
S1130B90554B5B79002B02D0EB6A0133EB62534B6C
S1130BA0EA6A9A4203D90023EB62514B9847514BAE
S1130BB003A89847E369002B21D04B4E3378002BD0
S1130BC01DD104A94C4B4D48984701233370E36968
S1130BD004985E689968B2B2494B9847864202D03D
S1130BE04848494B98472000E2692B6B52681C30F7
S1130BF09B182B63454B9847A36A013BA36203A848
S1130C00434B984709B0F0BD0027EF62009BBB42FD
S1130C100ADC404BDB78002BC9D06B4620001978E6
S1130C202C303D4B9847C2E723002C33DA5D2E4B22
S1130C30587904284CD801F02FFB032B34440A00C4
S1130C400C2A22D10B3A1A715A7100229A60264B4F
S1130C505A79042A19D11A79012A14D104AA0192C1
S1130C60103343CB43C21B6813602A4B1B79002B00
S1130C7002D00198294B9847264B5B78002B02D071
S1130C800198274B98471A4B98470137FFB2BDE7A5
S1130C90012A1DD9013A02219A6000225971DA60B1
S1130CA0D5E7D968581802741800FF30467C013122
S1130CB0724042749A68D9609142E6D303225A7111
S1130CC0C5E71900FF31497C914201D10422F6E7BE
S1130CD0074B9847BBE7C046CC12002034250020C0
S1130CE029090000CC130020CC110020E7030000E8
S1130CF0C909000075100000AD140000C0250020D3
S1130D0041110000BB2F0000A5030000C10D00002D
S1130D1083100000F8240020ED020000490A0000BE
S1130D20490B0000802270B5134988B0134B52015F
S1130D30343113489847134C01A92000124DA84799
S1130D40124A0021124E2000B047124A012120000D
S1130D50B0472000104B98472000104B98470028BC
S1130D6001D108B070BD02A92000A847142203A92C
S1130D7002980B4B9847EFE7CC130020790800004A
S1130D8034250020C0250020AD140000E109000036
S1130D90B5140000BD0900009D140000FD140000FE
S1130DA049110000002903D00368002B02D101601F
S1130DB0704713001A68002AFBD11960F8E7000095
S1130DC0036810B5002B04D01A6802601800014BA8
S1130DD0984710BD5D230000F8B5060010000C4BC9
S1130DE00C300F0015009847041E0ED000234560F8
S1130DF003600C303900074BA0602A00984721009B
S1130E003000054B98472800F8BD0500FBE7C046B5
S1130E104923000071230000A50D000070B51F24B4
S1130E204209C0B20440FF234D1C09D11A40D2012B
S1130E30144BA218D218137802318B43137070BD6F
S1130E40134082220125D205DB019B181E1940366E
S1130E503278AA432A4332706208284209D00F200C
S1130E609A1830321378090103401943C9B211703A
S1130E70E5E70F209B1830331A7801408243114371
S1130E801970DCE740000041064B41221900C833C9
S1130E90D4310A601A600823034AD1690B43D36131
S1130EA07047C046001C00400008004010B50449CB
S1130EB0044C0820A04704490920A04710BDC0469F
S1130EC0030008001D0E00000300090013B5064BC3
S1130ED098470023054A009305491033054C0648FA
S1130EE0A047064B984713BD890E00000424002038
S1130EF0000C00423914000070250020AD0E0000E3
S1130F00064B41221900C833D8310A601A601023F5
S1130F10034AD1690B43D3617047C046001C0040AB
S1130F200008004010B50449044C1020A0470449AF
S1130F301120A04710BDC046030010001D0E000084
S1130F400300110013B5074B98470023064A00938A
S1130F501033D2180549064C0648A047064B98475B
S1130F6013BDC046010F00000424002000100042FD
S1130F7039140000C0250020250F00008023034AF7
S1130F805B0051690B4353617047C0460008004041
S1130F9010B5044B98470448044B0360044B98472E
S1130FA010BDC0467D0F00006C25002000200040CD
S1130FB0BD20000010B50449044C1920A047044981
S1130FC01820A04710BDC046060019001D0E0000E1
S1130FD006001800802310B5074A5B001169074812
S1130FE00B4313614322064B06491A60064B98478C
S1130FF0064B984710BDC046000800404425002019
S1131000E81C0040001C0042B5100000B50F0000B1
S113101010B50D4B98470D4B98470D4B98478023BF
S11310200C4A5B01D1690B43D36142220A4B1A601B
S11310300A4B98470A4902000A4B0B4898470B4B46
S113104098470B4B984710BDC5190000CD0E000002
S1131050450F000000080040F81C00407920000003
S1131060003000420912000010260020910F0000F9
S1131070D50F0000EFF31083036072B6BFF35F8FE8
S11310807047BFF35F8F036883F310887047C369A9
S113109010B5002B00D0984710BD036A10B5002B83
S11310A000D0984710BD436A10B5002B00D0984774
S11310B010BD000010B5064B04009847002805D168
S11310C0044B6360044BA360044BE36010BDC04653
S11310D0E91500008F1000009B100000A71000000D
S11310E010B5014B984710BDD916000010B5014B3F
S11310F0984710BDE916000010B5014B984710BD84
S11311007917000010B501290ED0002904D0022956
S11311100CD00D20404206E00262531E9A41044B5B
S1131120D2B29847002010BDC261F6E74262F4E7EC
S11311306518000010B5014CA04710BDAD180000A3
S113114010B50368984710BD10B54368984710BDA3
S1131150F7B50568002D02D1114B9847F7BD01265C
S11311602C0000278B680093B31A0193A668636868
S1131170B44693420DD863449B1A009EB3420CD2EA
S113118023682700002B02D13800064BE5E71C003A
S1131190ECE7019EF3186344EFE7A542F4D1DBE7E3
S11311A02115000029150000F8B5036905005E1C2F
S11311B0037E44690661DB0702D4037E9B0717D5CF
S11311C002232A7E13432B76F8BD2F0014370C4BD1
S11311D038009847237C012B05D16660320021003A
S11311E03800084B98476F69E368200098473C0033
S11311F0002CE9D06368A268F31A9342E5D2E3E7CE
S1131200311500005111000010B5044B040098473B
S11312100020034B2061236010BDC046111F000055
S1131220A911000070B5064B05009847041E04D1AF
S11312302800044B9847200070BD11204042FBE772
S11312406120000049200000F0B507000125037E5D
S113125014372B43037685B00400144B38000E007A
S113126098470190002806D0237EAB432376133D94
S1131270280005B0F0BD22693100726002260C4BD3
S113128038009847237EAB432376237E019D334267
S1131290EED003A8074B9847237E2000B343237660
S11312A0054B984703A8054B9847E1E71115000043
S11312B051110000751000007D2000008310000013
S11312C0F7B507000125037E14372B43037604008A
S11312D0124B38000E009847002805D1237EAB43FB
S11312E023760B3D2800FEBD310002260C4B38004E
S11312F09847237EAB432376237E00253342F1D0E7
S113130001A8084B9847237E2000B3432376064B5D
S1131310984701A8054B9847E4E7C046111500001B
S11313203F150000751000007D20000083100000B0
S11313300023083810B50363436A002B00D0984794
S113134010BD0023083810B50363C36A002B00D016
S1131350984710BD10B50400044B2C309847236AFD
S1131360083C002B01D02000984710BD9F150000B9
S113137070B514000200831D4C32DE8F1588AE4216
S11313800AD1816414800022DA8701230830836241
S1131390034B9847200070BD1C204042FBE7C04629
S11313A0751E0000010010B50400838F44300088CE
S11313B0083998420AD0896C581CA087C95C20005F
S11313C0044B98472000044B984710BD2000034B62
S11313D0FAE7C0466D1E0000751E00007D1E000069
S11313E0F0B5050085B003A80F4B34350E0014008A
S11313F098470E4B280098470D4B070003A89847C1
S113140033193400F7190193A01B80B2BC4202D0F7
S1131410019B9C4201D105B0F0BD21002800054B81
S113142098470134F0E7C04675100000C11500006C
S1131430831000007D15000070B504000D003430E9
S113144011001A000D4B9847002813D120002900E1
S113145008300B4B984700280BD10A4B63600A4BAA
S113146023600A4BA3600A4BE3600A4B23610A4BD7
S1131470636170BD0D204042FBE7C0466515000066
S1131480011E0000E113000071130000A513000009
S113149055130000311300004313000010B5083049
S11314A0014B9847002010BD551E00000860002025
S11314B07047000010B5012910D0002904D002297A
S11314C013D00D20404208E08262531E9A4101214C
S11314D0D2B20830084B9847002010BD4262531E18
S11314E09A410830D2B20221F4E7C262531E9A41F3
S11314F00830D2B20321EDE7851E000010B5034B7E
S113150034309847431E984110BDC046C1150000B1
S11315100068002800D170478842F9D10120FAE719
S113152003680B600160704703680B6001607047DB
S11315300368002B01D01A680260180070470B1E64
S113154005D00368994205D10B6803600123180094
S113155070471300002BFAD01A689142F9D10A6837
S11315601A60F3E7531E1A4005D143608260C260DB
S11315700160100070470D204042FBE78368C26899
S11315809A4209D0426813400268D35C0B708368A6
S113159001338360002070470A204042FBE7C268A1
S11315A0436813400268D154C36881684268591A79
S11315B0914201D99A1A82600133C36000207047B6
S11315C0C3688068181A7047054B0200196800291F
S11315D001D104491960186882181A607047C0461E
S11315E024240020F8470020F0B5012401608B6911
S11315F023438B618B692342FCD002238A69134302
S11316008B612B4B994245D12A4B2B4D1A00856196
S113161001C28D69294E8D6100258D60CE61284EF1
S1131620284FCE60284EBFB23E430F00A0373E6025
S11316300E00BC363560F5608026244FB604BFB278
S11316403E430F00C0373E60802692B2B60232435A
S11316503A6328270A1DD7671A000F00143292B282
S113166032430837FA670A001C339BB2334388328B
S11316701360802390310D6015491B02154ACB6716
S1131680BFF34F8FBFF36F8FC021490053501360D6
S11316900368DC65022103689A698A439A6101221E
S11316A099699143996198691040FCD1F0BDC04695
S11316B0001C00422824002000000020030A030626
S11316C0330A00002C260020000002804C26002053
S11316D004E100E000E100E00121026893690020D8
S11316E08B439361704700007FB502680D001300BF
S11316F0A4331968490632D01B498A4232D11C6886
S11317001A49A404A40E24016418002C2AD02368C6
S11317105B00DA0F002B1CDA23686A73DB00DB083A
S11317202B6023689B00DA0F002B00DA2A71102249
S11317300F49104E6846B0476A4621006368A8689E
S11317401B031B0FD25C08312A73B047002004B07E
S113175070BD00236B732368DB005B0DE0E70A2098
S11317604042F4E71C20FBE7001C00422C2600202A
S1131770D72F000071230000026870B51300C43332
S113178004001868800261D4324882425ED118682D
S1131790314BC002C00E0001C018002856D04A7B4D
S11317A00B68012A20D1036080230268DB05134300
S11317B003600A7B082A19D80F254368274E154071
S11317C02D0433402B4343608968254B08309847E8
S11317D0226801211300C4331B680020DB02DB0EE6
S11317E09940D032116070BD9B04E1E70C2A05D802
S11317F043681A4D1D4090231B03E3E7102A04D8C5
S11318004368164D1D40A023F6E7142A04D8436804
S1131810124D1D40B023EFE7182A04D843680F4D3A
S11318201D40C023E8E7202A04D843680B4D1D401F
S1131830D023E1E7302A04D84368084D1D40E02353
S1131840DAE7402AC0D84568F023D5E71C20404297
S1131850C9E7C046001C00424C260020FFFFF0FFF1
S113186071230000002906D1016801204B6D8343D8
S11318701A434A65704701290BD103680948596D19
S1131880520201400A435A650122E03352421A606F
S1131890F0E70229EED102680349536D0B4053650A
S11318A0E8E7C046FFFDFFFF010200008069002A4F
S11318B01FD1C26889005118002B02D10B6000208F
S11318C070475A6818480A601A680B68520552092A
S11318D00340134380220B600B6812069B009B0895
S11318E013430B600B68114A1A4080231B051343F2
S11318F0E4E7012AE3D10269C9005118002BDDD0C5
S113190080201A6880050A600A68D200D20802435F
S11319100A6080225B6812064B604B689B009B0840
S113192013434B60CBE7C046FFFF00F8FFFFFFC740
S1131930164B70B51C6823681D6DEB0702D520009B
S1131940A3689847AB0502D5200063689847AB01AC
S113195003D503212000E3689847EB0103D5002158
S11319602000E36898472B0207D523682000596CB0
S1131970E3688906C90F013198472B0703D5042171
S11319802000E368984723681D6570BD2824002063
S1131990BFF34F8F034A044BDA60BFF34F8FC04647
S11319A0FDE7C0460400FA0500ED00E043B2002B59
S11319B005DB1F2318401E3B8340014A53607047D8
S11319C0FCE100E010B50C4B5A685A600B4B984789
S11319D00B4B98470B4B98470B4B9847FF200B4BEF
S11319E098470B4B984780230A4A11690B431361AC
S11319F0094B984710BDC04600400041F11B000050
S1131A00FD1B0000E51B00002D1C0000991B0000BD
S1131A101D1A000000080040891A000090220221CB
S1131A20D20513788B431370704713B5EFF310830B
S1131A30019372B690230124DB051A78A2431A702D
S1131A409860D9601A79D207FCD41869019B83F392
S1131A50108816BD13B5EFF31083019372B690236B
S1131A600124DB051A78A2431A709860D9601A79A8
S1131A70D207FCD4034B18685968019B83F3108880
S1131A801CBDC04610000048F7B502210125224BB9
S1131A9022481A88224F8A431A801A8849188A438E
S1131AA01A8002781F492A430270F02212011A8018
S1131AB05A7B1D4CAA435A7300229A735A615F637E
S1131AC099631A4901958C466646D1B231702178E2
S1131AD0019D89092940402506788901AE430E43BA
S1131AE00670616859642689110101327E520C34F2
S1131AF00C2AE9D10E4874320E49C267BFF34F8FE6
S1131B00BFF36F8FC02040000A500A6019887E3AE4
S1131B100A4300201A80FEBD00600041406000417D
S1131B207026002030270020E82F00003F6000418D
S1131B3004E100E000E100E00F2270B50D4B0E4D12
S1131B401B8C1340033AD9B253430C4AE818117062
S1131B5001210B4A14780C4203D011704368984752
S1131B6070BD147864080C42FAD0022111705B59DC
S1131B70F5E7C04600600041542400203F60004166
S1131B804E6000410249034B4A681A42FCD1704737
S1131B90001C0040FD07000010B50400C30704D575
S1131BA00D4B0E4A1A620E4B9847A30704D50A4BF5
S1131BB00A4A5A620A4B9847630704D5064B074AF8
S1131BC09A62074B9847230704D5034B034ADA620A
S1131BD0034B984710BDC046001C004000010100A3
S1131BE0851B00000122014B1A7170470008004058
S1131BF00122014B1A61704700140040094B0A4A44
S1131C001A820022DA740132D9681142FCD080228F
S1131C10198A12010A431A828022198A0A431A82F3
S1131C207047C046001000400603000070470000E3
S1131C30002805DB1F2318401E3B8340014A136024
S1131C407047C04600E100E0002809DB1F2318406C
S1131C501E3B8340034AD367BFF34F8FBFF36F8F9D
S1131C607047C04604E100E0002807DB1F23C022C0
S1131C7018401E3B8340024952008B507047C046B7
S1131C8000E100E0C3691942FCD17047022210B59B
S1131C900368032193430360014B984710BDC0467A
S1131CA0851C0000012310B58469227E1A4206D0E7
S1131CB0A27D1A4203D023750368984710BD237E82
S1131CC001229B0707D5A37DD340134203D00223EF
S1131CD023758368F1E7237E5B070BD53723628B7B
S1131CE01A4202D048336383E8E7218D4368C9B2BE
S1131CF09847E3E7237EDB09E0D080232376C3689B
S1131D009847638B9BB2EEE7054B984202D1054B93
S1131D1019607047044B9842FBD1024B5960F8E7B5
S1131D20000C0042E424002000100042304BF7B5C0
S1131D30C518AD0AEDB2033D6A426A41C3690400A5
S1131D40D5B22C4FDB071AD414236B432A4A02263C
S1131D50D318DA691C2303211A400192B847236877
S1131D60334205D02000254B984731002000B84766
S1131D700123019A0321134323602000B84714264A
S1131D806E4301212000B8471B4B03219E19F369C0
S1131D90200023600193B847336A07216360200061
S1131DA0B847C0230199DB01B28C19421ED0A38924
S1131DB0D2045B0BD20C5B031343A38107230736C6
S1131DC0F27F1A40A3895203DB04DB0C1343A38183
S1131DD014235D43084B00205D192B000833DB7F7F
S1131DE02835A3732B7830342370FEBDA281EFE72E
S1131DF000FCFFBD851C0000783000008D1C000035
S1131E0070B50E4B060008000C009847051E12D151
S1131E1031002000B4610A4B98470A4BE418A40A25
S1131E20093464B22000084B98472000074B9847B8
S1131E302000074B9847280070BDC0462D1D0000A8
S1131E40091D000000FCFFBD491C0000691C0000C6
S1131E50311C0000022310B580690321026813437A
S1131E600360014B984710BD851C0000836989B24B
S1131E7019857047012283699A7570470222836924
S1131E809A75704710B50B000224A34309D18369E6
S1131E900121002A02D119751C7510BD99759C7514
S1131EA0FBE7012905D183690331002A06D119759D
S1131EB0F3E70329F1D183697D31F6E79975ECE7FE
S1131EC010B5024B1868024B984710BDE42400205B
S1131ED0A51C000010B5024B5868024B984710BD72
S1131EE0E4240020A51C000003691942FCD17047BA
S1131EF0054A0423904202D0044BC018830ADBB283
S1131F00581E8341584270470040004200D0FFBD34
S1131F10F7B50C000190454B08009847019B0090D1
S1131F20DC602369424DDB0714D402260321200020
S1131F30A8472368334208D023680321B343200011
S1131F402360A84731002000A84701230321236010
S1131F502000A847142601212000A847009B032144
S1131F605E43344B20009E1977682760A847B37AF4
S1131F70E3733389E380012323730B331F40082F5A
S1131F8039D1F368C021E3612000A847002323620C
S1131F90C0212000A84701236372274B9C4202D131
S1131FA0264B019A1A601423009A5343214AD318EA
S1131FB05B785BB2002B0ADB1F2213401E3A9A4067
S1131FC013001F4AD367BFF34F8FBFF36F8F1423E0
S1131FD0009A5343174AD3185B785BB2002B08DB93
S1131FE01F221A400123C0219340164A490053502E
S1131FF013600020FEBD002F07D1F368C0219BB2FF
S1132000A3832000A847E783C2E7042FC3D1337B0F
S1132010C02123772000A8470023C0216377200034
S1132020A847F37A2021E376B3E7C046F11E000007
S1132030E91E0000B830000000300042EC2400200B
S113204004E100E000E100E0022310B5C0680321D0
S1132050026813430360014B984710BDE91E00005A
S113206010B5C46803212000024B984720688007FC
S1132070C00F10BDE91E00000020704710B5054BCD
S1132080C0689847142343430348C0184078034B5F
S1132090984710BDF11E0000B8300000AD190000D3
S11320A00122054B10B51868C368997A114202D011
S11320B09A720368984710BDEC2400200E2203682E
S11320C099681142FCD11A78D20913D10E32996859
S11320D01142FCD11A7892070CD404211A788A434D
S11320E01A700E2298681040FCD10F215A788A4346
S11320F05A70704711204042FBE70000030070B59E
S113210010001C680E000E23A2681A42FCD123782A
S1132110DB095AD10E33A2681A42FCD10125237877
S11321205B082B40191E50D13200294EB0470029BC
S113213012D1FA239B0298423DD017D8FA23DB012F
S113214098422ED00AD8FA235B0198422AD0FA2367
S113215029009B01984225D00D2037E0FA231B0269
S1132160984226D0FA2304215B02F3E7FA235B03A7
S1132170984224D007D8FA23DB0298421DD0FA23D0
S113218007211B03E6E7FA23DB03984219D0FA235D
S11321901B04984217D0FA239B039842DCD10921EF
S11321A000E002210F2200206378934319436170F9
S11321B070BD0321F6E70521F4E70621F2E70821C3
S11321C0F0E70A21EEE70B21ECE711204042EFE7AC
S11321D0AD2200000222036819780A431A700E2205
S11321E098681040FCD17047A52203681A73953A89
S11321F098681040FCD17047C0238022DB0512058B
S11322009A619A6082238022DB05D2059A62014A90
S11322109A627047000800C070B5114B9847114B83
S11322209847114B9847114B11489847114B9847C1
S1132230114B98478022FA21104C52018900104B0F
S1132240200098470F4B2000984720000E4DA847C8
S11322500E4B98472000A8470D4B98470D4BF8E7C5
S11322601D0100004D030000250D00002512000093
S113227010260020F9210000490200006C250020EE
S1132280FD200000D5210000E9210000D502000056
S113229051040000750B000002B47146490849005E
S11322A0095C49008E4402BC7047C046F0B5CE4676
S11322B0474615042D0C2E0080B50704140C3F0C62
S11322C09946030C7E435D43674363437F19340C93
S11322D0E4199C46A54203D980235B029846C44472
S11322E04B46514343433604360C250C24046544C1
S11322F0A4195918491920000CBC90469946F0BD00
S113230070B500260C4D0D4C641BA410A64209D1D7
S1132310002600F025FF0A4D0A4C641BA410A642B7
S113232005D170BDB300EB5898470136EEE7B30012
S1132330EB5898470136F2E76C3100006C3100002D
S11323406C3100007031000010B5034B01001868B7
S113235000F062F810BDC0461400002010B5034B15
S11323600100186800F00EF810BDC04614000020EB
S1132370002310B59A4200D110BDCC5CC454013383
S1132380F8E7000070B50500002910D00C1F236881
S1132390002B00DAE418280000F0F2F81D4A136854
S11323A0002B05D163601460280000F0EAF870BDCA
S11323B0A34209D9216860188342F3D118685B6885
S11323C041182160EEE713005A68002A01D0A242A6
S11323D0F9D919685818A0420BD12068091858185F
S11323E019608242E0D110685268411819605A603D
S11323F0DAE7A04202D90C232B60D5E721686018E4
S1132400824203D1106852684118216062605C60A6
S1132410CAE7C046F0240020032370B5CD1C9D43B9
S1132420083506000C2D1ED20C25A9421DD83000FB
S113243000F0A6F8254A14682100002919D1244C7B
S11324402368002B03D1300000F044F820602900F9
S1132450300000F03FF8431C2CD10C2330003360D3
S113246000F08FF803E0002DDFDA0C233360002046
S113247070BD0B685B1B1AD40B2B03D90B60CC18F3
S1132480256003E08C420ED163681360300000F0D5
S113249078F8200007220B30231D9043C31AE7D09D
S11324A05A42E250E4E74B6863600C00EEE70C002C
S11324B04968C2E70323C41C9C43A042E0D0211A0C
S11324C0300000F007F8431CDAD1C6E7F0240020FE
S11324D0F4240020002370B5064C05000800236096
S11324E0FFF772F8431C03D12368002B00D02B6044
S11324F070BDC046F02700200023C25C0133002ACF
S1132500FBD1581E704710B502000078002804D192
S1132510097800290DD010BD013210780028FAD0B6
S11325200023C85C002804D0D45C8442F4D1013375
S1132530F7E71000EFE7000030B59BB0009104917D
S113254008496D4602910591012182244942E9819D
S1132550A4006946AC8100F077F80023009A137058
S11325601BB030BDFFFFFF7F10B513000A00010050
S113257002480068FFF7E0FF10BDC04614000020C9
S113258070477047F0B58E6885B007000C00039261
S113259001939E4239D890238A89DB001A4234D0B1
S11325A00325096923685B1A0293636902985D43F2
S11325B0EB0F5D19019B6D1001331B18AB4200D961
S11325C01D00530532D529003800FFF725FF061EEC
S11325D009D10C233B6040230120A28940421343CC
S11325E0A38105B0F0BD029A2169FFF7C1FEA3895A
S11325F0144A1A4080231343A381029B2661F618D0
S113260026606561019EED1AA560019BB34200D26C
S11326101E0032000399206800F0ADFAA368002080
S11326209B1BA36023689E192660DAE72A00380002
S113263000F0B3FA061EE0D121693800FFF7A2FECC
S1132640C7E7C0467FFBFFFFF0B59FB0029005933C
S11326508B890F0016001B0611D50B69002B0ED1B8
S11326604021FFF7D9FE38603861002805D10C23DA
S1132670029A013813601FB0F0BD40237B61002330
S113268006AD6B6120336B761033AB763400237860
S1132690002B47D1A31B04930DD0A31B3200390098
S11326A00298FFF76FFF431C00D1B5E06A69049BF1
S11326B0944663446B612378002B00D1ACE0012283
S11326C0002352426A6002A95432521801342B602A
S11326D0EB60AB601370AB65584E05222178300077
S11326E000F03EFA621C002820D12968CB0604D5EC
S11326F0532302AE20309B1918700B0704D55323C3
S11327002B2002AE9B19187023782A2B16D0002098
S11327100A21099B2278303A092A55D9002815D074
S1132720099313E0252BB5D00134B0E70123801BB6
S11327308340296814000B432B60CDE7059B181DCB
S11327401B680590002B39DB0993140023782E2B8A
S11327500BD16378621C2A2B3ED1059B02341A1DCF
S11327601B680592002B34DB0793354E2178032236
S1132770300000F0F5F9002806D04023801B834088
S11327802A68013413432B60217806222D48661CE5
S1132790297600F0E5F9002846D02B4B002B2FD1E9
S11327A02968059B0722C90528D59B18934308333C
S11327B005936B69039A9B186B6167E75B42EB6057
S11327C002230B432B60C0E74B4301349B180120C9
S11327D0A0E701235B42C7E7002314000A201A0084
S11327E06B6021783039092903D9002BBDD00792B9
S11327F0BBE74243013452180123F2E70733D5E71C
S113280005AB00933A00114B2900029800E000BF89
S11328100390039B0133CCD1BB890B985B0600D496
S113282029E70120404226E705AB00933A00074B15
S11328302900029800F07AF8EAE7C0462C3100003B
S11328403231000036310000000000008525000010
S1132850F7B5150001938A680B6900900C00934248
S113286000DA130022002B6043321278002A01D0D0
S113287001332B6023689B0602D52B6802332B603F
S1132880062723681F4027D0230043331B785A1E92
S113289093412268920630D4220001994332009871
S11328A0089EB047431C25D0062320682A68E168A7
S11328B003400025042B03D18D1AEB43DB171D4085
S11328C0A3682269934201DD9B1AED180027BD42DB
S11328D020D1002010E00137E3682A689B1A9F4248
S11328E0D2DA22000123193201990098089EB047D8
S11328F0431CF0D101204042FEBD3020E118433199
S1132900087021005A1C45310978A2184332023359
S11329101170C1E7220001231A3201990098089E20
S1132920B047431CE6D00137D1E70000F0B58BB0C7
S113293006920A0043320793059004920A7E0C0023
S1132940109B6E2A00D18FE017D8632A2CD008D8A8
S1132950002A00D199E0582A54D026004236327019
S113296029E0642A01D0692AF7D121681A68080687
S113297023D5111D1960156825E0732A00D188E05C
S113298008D86F2A29D0702AE7D1202209680A437F
S1132990226003E0752A20D0782ADED12200782133
S11329A0453211706C4A30E00E001A684236111D2F
S11329B0196013683370012379E04906D9D5111DD4
S11329C019600023D55E002D03DA2D23049A6D428D
S11329D01370624B0A2703932FE0206819680506D9
S11329E003D5081D18600D6805E04006F9D50D688B
S11329F0081D1860ADB2594B082703936F2A18D0ED
S1132A000A2716E045310A70544A03921A6821686D
S1132A10101D18601568080622D5CB0702D520239F
S1132A20194321601027002D03D1202322689A43E3
S1132A3022602300002243331A706368A360002BD2
S1132A405CDB0422216891432160002D58D1049E4F
S1132A50002B64D02600039B42361B7833705EE063
S1132A604806DAD5ADB2D8E709681A68080605D56C
S1132A70111D1960136862691A6006E04906F7D5EA
S1132A80111D19601368A28A1A800023049E236111
S1132A9054E01A68111D196016680021626830003C
S1132AA000F05EF8002801D0801B60606368236139
S1132AB00023049A137041E02369320006990598B3
S1132AC0079DA847431C43D0236800259B070FD4C8
S1132AD0099BE06898423DDA18003BE0220001239C
S1132AE0193206990598079EB047431C30D001352A
S1132AF0E368099A9B1A9D42F0DBE9E7002DA9D00F
S1132B00049E28003900FEF7A5FF039B013E5B5C91
S1132B10280033703900FEF788FF051EF1D1082F15
S1132B2009D12368DB0706D563682269934202DC76
S1132B303023013E3370049B9B1B2361079B09AA2E
S1132B4000932100069B0598FFF782FE431CB3D136
S1132B50012040420BB0F0BD4E3100003D31000079
S1132B60C9B28218904201D10020704703788B4289
S1132B70FBD00130F6E710B5884202D98B18984291
S1132B8008D300239A4207D0CC5CC4540133F9E73C
S1132B908B5C8354013AFBD210BDF8B507000D00DD
S1132BA01600002905D11100FFF736FC04002000AF
S1132BB0F8BD002A03D1FFF7E5FB3400F7E700F086
S1132BC012F82C008642F2D931003800FFF724FCB9
S1132BD0041EECD029003200FFF7CAFB290038009C
S1132BE0FFF7D0FBE3E70B1F1B68181F002B01DA6C
S1132BF00B58C0187047667067615F7265626F6FCB
S1132C007420737563636573730D0A00667067617E
S1132C105F7265626F6F74206661696C65643A20E7
S1132C2064656C61792074696D6520746F6F206CC4
S1132C306F770D0A00656C6F673A20777269746567
S1132C40206C6F6F702D6172726179206572726F82
S1132C50722C20657869740D0A00656E61626C657A
S1132C600064697361626C6500656C6F67207772DC
S1132C70697465206572726F720D0A00656C6F6706
S1132C805F70726F63657373206572726F723A72EC
S1132C90656164206572723D25640D0A00656C6F80
S1132CA067737461727400656C6F6720737461720A
S1132CB0740D0A00656C6F6773746F7000656C6FD8
S1132CC0672073746F700D0A00666C3D656E006357
S1132CD06F6E66696720667067612D6C6F6F7062D6
S1132CE061636B3A656E61626C650D0A00666C3DEA
S1132CF064697300636F6E66696720667067612D2F
S1132D006C6F6F706261636B3A64697361626C6566
S1132D100D0A006332663D656E00636F6E66696717
S1132D202063616E2D746F2D667067613A656E6104
S1132D30626C650D0A006332663D64697300636FFB
S1132D406E6669672063616E2D746F2D66706761AE
S1132D503A64697361626C650D0A006632633D65AD
S1132D606E00636F6E66696720667067612D746FAD
S1132D702D63616E3A656E61626C650D0A006632A0
S1132D80633D64697300636F6E666967206670678C
S1132D90612D746F2D63616E3A64697361626C6551
S1132DA00D0A006632653D656E00636F6E66696785
S1132DB020667067612D746F2D656C6F673A656E60
S1132DC061626C650D0A006632653D646973006377
S1132DD06F6E66696720667067612D746F2D656C10
S1132DE06F673A64697361626C650D0A00676574A4
S1132DF073797363666700666C3D25732C206632B5
S1132E00633D25732C206332663D25732C20663286
S1132E10653D25730D0A00667067612D706F7765D7
S1132E20726F6E00706F7765726F6E667067610D9A
S1132E300A00667067612D706F7765726F66660051
S1132E40706F7765726F666620667067610D0A0041
S1132E50667067612D7265626F6F7400667067617A
S1132E6020706F776572646F776E2E2E2E0D0A00B8
S1132E706765742D63616E2D636E74005B43414E10
S1132E805D7263763A256C642C2073656E643A2512
S1132E906C640D0A006765742D667067612D636E3E
S1132EA074005B465047415D3A7263763A256C6420
S1132EB02C2073656E643A256C640D0A0067657492
S1132EC02D6C6973742D64656570005B44454550D1
S1132ED05D667067613A256C642C20656C6F673A97
S1132EE0256C640D0A007379732D72657365740023
S1132EF0756172742D73656E642D74657374005BF3
S1132F00315D746573740D0A005B325D31323334A4
S1132F1035363738390D0A005B335D61646473619B
S1132F20667361660D0A00656C6F675F70726F632C
S1132F30657373206572726F723A6F76657220667C
S1132F406C6F770D0A006C6F6F702D61727261790E
S1132F502072656164206F76657220666C6F773AC3
S1132F6072643D256C642C2077723D256C642C20A2
S1132F706C656E203D20256C640D0A0066706761E7
S1132F805F756172743A207772697465206C6F6F33
S1132F90702D6172726179206572726F720D0A0010
S1132FA063616E5F6173796E635F777269746520C4
S1132FB06572726F723A25640D0A007472616E73E1
S1132FC06D69742066706761206461746120666154
S1132FD0696C65640D0A0000010203040506070814
S1132FE00C1014182030400002000000600800009B
S1132FF000080000020000000009000000040000B6
S113300000000000000000000000000000000000BC
S113301000000000000000000000000000000000AC
S1133020000000000000000000000000000000009C
S1133030000000000000000000000000000000008C
S1133040000000000000000000000000000000007C
S1133050000000000000000000000000000000006C
S1133060000000000000000000000000000000005C
S1133070000000000000000000000000000000004C
S1133080000000000000000000000000000000003C
S113309002000000040010400000030082E200006F
S11330A000000000030000000400104000000300C2
S11330B082E2000000000000001400001804000078
S11330C004010000E803000000000000000000000C
S11330D000000000000000000000000000000000EC
S11330E000000000000000000000000000000000DC
S11330F000000000000000000000000000000000CC
S113310000000000000000000000000000000000BB
S113311000000000000000000000000000000000AB
S1133120000000000000000000000000232D302BF0
S11331302000686C4C0065666745464700303132B4
S1133140333435363738394142434445460030310B
S1133150323334353637383961626364656600006A
S1133160F8B5C046F8BC08BC9E467047E5000000B0
S1133170F8B5C046F8BC08BC9E467047BD000000C8
S11331802C2600204C2600202C2400203C24002047
S1133190442400201800002000000000EC3000004F
S11331A00C310000CC3000000000000000000000E2
S11331B0000000000000000000000000000000000B
S11331C000000000000000000000000000000000FB
S11331D000000000000000000000000000000000EB
S11331E000000000000000000000000000000000DB
S10B31F00000000000000000D3
S9030000FC
