S00F000078317A5F6332312E73726563CD
S1130000084800202D0100002901000029010000FA
S113001000000000000000000000000000000000DC
S113002000000000000000000000000029010000A2
S11300300000000000000000290100002901000068
S113004029010000290100002901000069250000A0
S113005029010000290100002901000051240000A9
S1130060290100002901000029010000C529000020
S1130070D929000000000000000000002522000033
S113008000000000290100002901000029010000EE
S1130090212C000029010000290100002901000091
S11300A029010000290100002901000029010000A4
S11300B029010000290100002901000010B5064CA7
S11300C02378002B07D1054B002B02D0044800E015
S11300D000BF0123237010BD800000200000000039
S11300E010400000084B10B5002B03D00749084806
S11300F000E000BF07480368002B00D110BD064B89
S1130100002BFBD09847F9E7000000008400002092
S113011010400000104000000000000010B5014B2A
S1130120984710BDD5120000FEE7000010B5174A2D
S1130130174B9A4211D01A00164B9A420DD2164A06
S113014003339B1A9B0801339B00002210480F497C
S11301508C58845004329A42FAD1104A104B9A4275
S11301600AD2D3430E495B1803218B4304339B18F3
S1130170002102C29342FCD10A4AFF210A4B8B435D
S113018093600A4B98470A4B9847FEE710400000DB
S113019000000020780000200400002080000020DF
S11301A00428002000ED00E00000000019300000E9
S11301B0A12E0000F0B5D6464F464646C0B586B0DF
S11301C004006B460493A4230268D3587F271F407E
S11301D026D000252C4B99462C4E2D4B984602E0F8
S11301E00135BD421CD0A4232268D3589A4602A9E3
S11301F02000C847336801333360A82023681958A6
S11302003F2399435246120A13400B43226813506A
S113021043465B79002BE3D002A81E4B9847DFE7E7
S1130220B4232268D3587F271F4026D00025164BBD
S11302309946164E164B984602E00135BD421CD035
S1130240B4232268D3589A4602A92000C8473368C9
S113025001333360B820236819583F239943524629
S1130260120A13400B432268135043465B79002B58
S1130270E3D002A8074B9847DFE706B01CBC9046C2
S11302809946A246F0BDC046251400000024002073
S113029004250020050D000070B582B0C023DB05E5
S11302A08022D2005A619A608223DB05104A9A6246
S11302B0C02212069A620F4B0093002601960E4C40
S11302C06B460022002120000C4DA8470C4B0093E4
S11302D001966B46012201212000A847094A00210A
S11302E02000094B98472000084B984702B070BD86
S11302F000040040DF07000050250020DD1400004A
S1130300FFFFFF1FB50100008D140000D51300008E
S11303100022014B1A707047042500200122014B72
S11303201A7070479C0000200022014B5A707047DD
S11303309C000020044B01221A705A711A71002289
S11303409A70DA705A7070470425002010B500289E
S113035001D0002900D110BD054C231D0A00010065
S11303601800044B9847236901332361F3E7C0461F
S11303709C0000207110000070B5041E03D0084BCF
S11303801B78002B00D170BD064B98470200064D28
S1130390281D2100054B98472B6901332B61F2E797
S11303A004250020113200009C0000207110000080
S11303B030B583B0802252010B4914310B480C4BE9
S11303C098470C4C01A920000B4B98470B4A00217D
S11303D020000B4DA8470B4A01212000A84720000C
S11303E0094B984703B030BD9C0000201C25002019
S11303F0790A00007C250020B11B0000090A0000D6
S1130400DD1B000029030000851B00000FB400B5AC
S1130410C3B044AA02CA019202A8044B984702A896
S1130420034B984743B008BC04B01847813200001E
S11304307903000010B580221205C023DB059A6100
S11304400148024B984710BD2C3900000D040000F0
S113045010B50A2809D9074900230B74064BCB6051
S113046088600648064B984710BD0648064B9847D7
S1130470FAE7C0462C250020350400001C26002085
S1130480D9170000443900000D040000F0B5DE4621
S113049057464E464546E0B5C9B006A8CE4B9847E8
S11304A0CE4B5B68002B03D0CC4B5B78002B17D072
S11304B006A8CB4B98478022520008A9C948CA4BCA
S11304C098478346002826DB08AC2718002800DC60
S11304D056E2C64D2B00AA461833049305934DE00B
S11304E007A9C348C34B9847BC4B01225A705B68A9
S11304F05C68A2B299680798BF4B9847844202D0BF
S1130500BE48BF4B9847B54C201DBE4B9847236946
S1130510013B2361CCE70100BB48B94B984733E268
S1130520B24AD21800215176002B20D0B74B1E7846
S1130530002E32D1B649AD481830B64B9847002842
S11305403ED0B54EB549B648B64B984700222C2349
S1130550F254B54B7362B54BB362B049B048B44B77
S113056098470122A94B1A70B248A54B984700221C
S11305709E4B5A610134A74200D101E26B69227893
S1130580E9180A76242ACBD00A2AC9D00133FF2BD2
S113059000D9EEE1954A5361ECE7A7499348183036
S11305A09C4B984700280BD0A448954B98479A49F0
S11305B01C319B489B4B98470022944B1A70D6E7FA
S11305C09F490498934B9847002806D001228F4BEB
S11305D05A709C488A4B9847C9E79B4905988D4BAC
S11305E09847002806D00022884B5A709748844BBD
S11305F09847BCE796497D481830864B98470028B1
S113060006D00122814B5A7192487D4B9847AEE740
S11306109149764818307F4B9847002806D000222D
S11306207A4B5A718D48764B9847A0E78C496F48AE
S11306301830784B9847002806D00122734B1A7162
S113064088486F4B984792E7874968481830714B40
S11306509847002806D000226C4B1A718348684BD7
S1130660984784E78249614818306A4B98470028C4
S113067006D00122654BDA707E48614B984776E7D5
S11306807D495A481830634B9847002806D0002209
S11306905E4BDA7079485A4B984768E77849534873
S11306A018305C4B9847002834D0002E24D175496B
S11306B0564B5B78002B21D1724A544B1B79002B8B
S11306C01ED1704B98465148407900281BD16D4883
S11306D04E4EB678002E18D16A4E4C4BDB78002B68
S11306E015D1684B9C46634602930196009043469D
S11306F06548434EB0473AE76449D9E7634ADCE7C3
S1130700624B9846DFE76148E2E7604EE5E75F4BFE
S11307109C46E8E75E49354818303E4B9847002828
S113072008D080221205C023DB059A615948344B56
S113073098471CE758492D481830364B98470028ED
S113074008D080221205C023DB055A6153482C4B84
S113075098470CE75249254818302E4B98470028F3
S11307600CD05048264B984780221205C023DB0545
S11307705A61FA2080004C4B9847F8E64B491B48D5
S11307801830244B9847002807D0494B1968494B27
S11307901A6849481A4B9847E9E6484913481830FB
S11307A01C4B9847002807D0454B1968454B1A68DD
S11307B04548134B9847DAE644490C481830154B22
S11307C09847002800D187E0414B1A68034B196908
S11307D040480B4B9847CAE6451300009C00002094
S11307E0531300001C250020450B00009C10002022
S11307F07C250020B11B0000D515000080390000C5
S11308000D04000055100000943900000425002058
S1130810B83900001F3200009C110020B8110020DC
S11308201C2600208518000030750000110300000C
S1130830D9170000C4390000D4390000E0390000A1
S1130840EC390000F4390000143A00001C3A0000AE
S11308503C3A0000443A0000603A0000683A000064
S1130860883A0000903A0000AC3A0000B43A000024
S1130870D43A0000DC3A0000FC3A0000043B0000DB
S1130880243B000078390000303B00007039000040
S1130890503B0000603B0000703B0000803B0000C8
S11308A0903B00009C3B000051040000B03B000062
S11308B000240020E4120020BC3B0000D43B0000D4
S11308C0E0120020FC130020E43B0000003C000088
S11308D0F4120020103C0000334934481830344BE3
S11308E09847002802D0334B9847FEE732492F48F7
S11308F018302F4B984700282DD0304E3068431EB7
S11309009841C0B29B222E492E4B984730002E4B63
S113091098472E482E4B9847C026F6058023DB00C7
S11309209946B36180231B059846736129491920B0
S1130930294B98471920294B98470420284B98475E
S11309402248284B98471920274B98474B467361F8
S11309504346B3610BE6254914481830144B9847B5
S1130960002800D103E6224B19782248224B9847ED
S1130970FDE500235246536120481F4B9847F9E593
S11309801F4B9B78002B06D149B03CBC904699463E
S1130990A246AB46F0BD5B466A461374117C08A8B8
S11309A0184B9847F0E7C0462C3C00009C100020F0
S11309B01F32000091220000383C000078250020FE
S11309C010390000851C0000F92D0000502500207E
S11309D0FD1300001D0300006D150000B515000097
S11309E03D160000D5130000C5150000403C000072
S11309F09C0000204C3C00000D040000603C000002
S1130A0004250020D90C0000F0B5C64600B592B00C
S1130A101148124B9847061E1ADD01A90E48104BC7
S1130A20984700250F4F104B9846402202A9019881
S1130A30B847041E0CDD020002A90C48C0470C3064
S1130A4003D02D19AE42F0DC02E00948094B984767
S1130A5012B004BC9046F0BD7C250020551C00005B
S1130A60B11B000009160000A50A00001C25002087
S1130A70803C00000D04000000280AD000290BD09F
S1130A80002A0CD0C1608260002303604360002010
S1130A9070470E204042FBE70E204042F8E71F203B
S1130AA04042F5E7F8B5CE46474680B504000E004F
S1130AB0150000283AD000293AD00020002A26D078
S1130AC060681318A2682F00934200D9171AEA1B12
S1130AD090462168884203D98A4201D3002A1AD158
S1130AE0884201D28B4216D8E3689C4660443A009F
S1130AF03100104B99469847F1194246E068C847BF
S1130B006368E818A1680C4B9847616028000CBC26
S1130B1090469946F8BD2B0002000848084DA847A6
S1130B200023236063600C204042F0E70020EEE7DE
S1130B300020ECE7893000006D230000A83C000091
S1130B400D040000F0B5C64600B582B005000E00E5
S1130B501700002843D0002943D00020002A03D1E5
S1130B6002B004BC9046F0BD01A81F4B9847296809
S1130B706868814207D30024814213D801A81B4B23
S1130B8098472000ECE7441ABC4200D93C00EB68CB
S1130B909C46614422003000154B98472B681B1972
S1130BA02B60EBE7AA688018441ABC4200D93C00C9
S1130BB0571AA74200D92700EB689C4661443A00C3
S1130BC030000B4B98469847F019E21BE968C04780
S1130BD02B68E018A968074B98472960CEE70020E6
S1130BE0BEE70020BCE7C0464513000053130000D5
S1130BF0893000006D2300000022014B1A707047F9
S1130C00CC110020044B00229A60DA60882149004C
S1130C105A545A711A717047CC11002010B58EB015
S1130C200F48104B9847041E01D10EB010BD694601
S1130C300B480D4B9847A2B201A900980B4B98475B
S1130C4002000B494B69C3184B6101A909480A4BBF
S1130C5098470C30E9D10948094B9847E5E7C04665
S1130C60CC250020551C0000B11B00000916000013
S1130C70CC12002040250020A50A0000F83C00000A
S1130C800D04000000B585B00368DA00D2080092B4
S1130C905A00D20F69460A71DB0F4B7303790B7349
S1130CA0053002900748084B9847002805D1074AA9
S1130CB093690133936105B000BD01000448054BFD
S1130CC09847F8E75025002059140000CC12002062
S1130CD01C3D00000D04000010B5002801D00029BF
S1130CE000D110BD054C23001C330A00010018007C
S1130CF0034B9847A36A0133A362F2E7CC120020A6
S1130D0071100000F0B587B0051E30D00C2202AB84
S1130D101A7003680193427B012A2AD02B79012B94
S1130D202CD02C7B02AFA31D7B70042201A90A20C6
S1130D306844154EB047BC71A96822000F2068446E
S1130D40B047601D00220023002102ADAC4662447E
S1130D50927851400133DBB21A008342F5DB2B1940
S1130D60D97121000831C9B22800084B984707B04F
S1130D70F0BD8022120613430193CFE78023DB05E5
S1130D80019A13430193CCE789300000D90C000089
S1130D9000B585B00368DA00D2080092DA0F69461C
S1130DA04A735B00DB0F0B7103790B730530029000
S1130DB06846024B984705B000BDC046050D0000CB
S1130DC0F0B5C64600B586B08022520064492C3185
S1130DD06448654B9847071E08DD0022634BDA62BE
S1130DE0002400235E4A9046614E58E0604B5B79D4
S1130DF0002B03D05D4AD36A0133D3625D4B5B4A57
S1130E00D26A9A4270D90022584BDA625A4B9847F8
S1130E106AE00C2A3ED1564B0B3A1A715A710022E1
S1130E209A6037E0012A07D9514B02215971013ADE
S1130E309A600022DA602DE04F4B984720E04C4B3B
S1130E40D9685818027488214900585C42405A54A1
S1130E50DA68511CD9609B6899421BD30322444B26
S1130E605A7117E088235B004149CB5C934202D05E
S1130E70414B984704E004224A7105E03E4B9847F1
S1130E803B4B5B79042B05D1394B1B79012B10D0DB
S1130E90394B98470134E4B22300A74220DD434490
S1130EA02C229A5C7379042BE8D89B003349CB58E5
S1130EB09F4602AA2E4B103323CB23C21B68136018
S1130EC02F4B1B79002B07D12D4B5B78002BDFD0E8
S1130ED002A82C4B9847DBE702A82B4B9847F3E773
S1130EE0274BDB78002B11D101A8284B98471C4BCA
S1130EF0DB69002B03D01E4B1B78002B0CD001A800
S1130F00234B984706B004BC9046F0BDF9B2144890
S1130F102C30204B9847E7E702A91F481F4B9847FE
S1130F200122134B1A700E4BDB695C68A2B29968FC
S1130F3002981B4B9847844202D01A481A4B984790
S1130F400A4A136B064CE16949685B181363200075
S1130F501C30164B9847A36A013BA362CFE7C046F7
S1130F60CC12002040250020450B0000CC130020AB
S1130F70CC110020E7030000050C0000E03C000059
S1130F8004250020910D0000850C0000451300008D
S1130F90531300004D030000CC250020B11B0000BA
S1130FA0D5150000383D00000D0400005510000068
S1130FB030B589B080225201134934311348144B9F
S1130FC09847144C07A92000134B9847134A002153
S1130FD02000134DA847134A01212000A8472000F0
S1130FE0114B98470B4C114D08E001A909480A4BD5
S1130FF09847142202A901980D4B98472000A8474E
S11310000028F2D109B030BDCC13002040250020C7
S1131010790A0000CC250020B11B00001D0C000043
S1131020DD1B0000F90B0000851B0000551C0000AF
S11310300916000000290BD0002809D00268002AF4
S113104002D1016004E01A001368002BFBD1116087
S11310507047000010B5002807D00368002B04D0A7
S11310601A6802601800014B984710BD75300000E3
S1131070F8B506000F00140010000C300A4B984716
S1131080051E0ED00023036044600C30A8602200CB
S11310903900064B984729003000054B984720003B
S11310A0F8BD0020FCE7C046613000008930000034
S11310B03510000010B540218823054AD150054A57
S11310C051698023DB000B435361034B984710BDE8
S11310D0001C00400008004049150000054B412257
S11310E0D4215A500C395A50034AD369C0390B439E
S11310F0D3617047001C00400008004030B58223D3
S1131100DB054822995C0125A94301242143C9B286
S113111099543420195C393A91430C3A11431954C7
S113112049215A5CAA432243D2B25A541A5C3A392E
S11311300A4021310A431A5430BD000010B582B070
S1131140064B9847002300931033054A0549064887
S1131150064CA047064B984702B010BDDD100000B6
S113116004240020000C00427C250020ED1A00001D
S1131170FD100000054B4122D8215A5010395A5015
S1131180034AD369B8390B43D3617047001C00404C
S11311900008004030B58223DB055022995C01250C
S11311A0A94301242143C9B299543820195C413A16
S11311B091430C3A1143195451215A5CAA432243D6
S11311C0D2B25A541A5C42390A4021310A431A54A1
S11311D030BD000010B582B0074B98470023009340
S11311E01033064A103206490648074CA047074BFD
S11311F0984702B010BDC0467511000004240020B9
S113120000100042CC250020ED1A000095110000CA
S1131210034A516980235B000B4353617047C04606
S11312200008004010B5064B9847482205490120A4
S1131230054B98470548064B0360064B984710BD7D
S11312401112000010390000851C000078250020D0
S113125000200040412C000030B58223DB055922D8
S1131260995C0125A94301242143C9B299543C2026
S1131270195C4A3A114051321143195458215A5CAD
S1131280AA432243D2B25A541A5C49398A430939CF
S11312900A431A5430BD000010B5084A116980236E
S11312A05B000B4313614321E823054AD1500549F0
S11312B00548064B9847064B984710BD0008004068
S11312C0001C0040001C0042502500208513000033
S11312D05912000010B50F4B98470F4B98470F4B0E
S11312E098470F4B98470F4AD16980235B010B4302
S11312F0D3614221F8230C4AD1500C4B9847020089
S11313000B490C480C4B98470C4B98470C4B98478F
S113131010BDC046D1220000B51000003D110000F0
S1131320D511000000080040001C0040DF2B000025
S1131330003000421C26002059170000251200002E
S113134099120000EFF31083036072B6BFF35F8F4E
S11313507047BFF35F8F036883F31088704710B53D
S1131360C369002B00D0984710BD10B5036A002B49
S113137000D0984710BD10B5436A002B00D09847A1
S113138010BD000070B505000C00002814D0080042
S1131390431E9841C0B241220849094B9847210095
S11313A02800084B9847002805D1074B6B60074B72
S11313B0AB60074BEB6070BD0020ECE7543D0000D0
S11313C0851C0000591E00005F1300006B13000011
S11313D07713000010B50400431E9841C0B25C228C
S11313E00349044B98472000034B984710BDC0465F
S11313F0543D0000851C0000711F000010B504005E
S1131400431E9841C0B265220349044B984720000B
S1131410034B984710BDC046543D0000851C000096
S11314207F1F000070B504000D0000280CD00800D8
S1131430431E9841C0B26E220449054B98472900C7
S11314402000044B984770BD0020F4E7543D000091
S1131450851C00008D1F000070B504000D000028DD
S11314600CD00800431E9841C0B277220449054BB2
S1131470984729002000044B984770BD0020F4E7EA
S1131480543D0000851C00002920000070B50600B2
S11314900D001400431E9841C0B281220C490D4B2B
S11314A09847012D10D0002D04D0022D0ED00D2010
S11314B0404208E03462621E9441E2B229003000E6
S11314C0054B9847002070BDF461F4E77462F2E7BD
S11314D0543D0000851C000051210000F8B50400B3
S11314E00D0016001F00431E9841C0B2B8220549E2
S11314F0054B98473B00320029002000034CA047CD
S1131500F8BDC046543D0000851C00009D2100002C
S113151070B50C4B5C68A0420ED00122002101265C
S1131520FF2503E02A0053185B080AD1A042F9D929
S1131530002A06D03100F6E7024B1B68002B00D0CE
S1131540984770BD2424002010B5054B0122524257
S11315505A6000221A600348034B984710BDC046E6
S11315602424002011150000A924000010B50F4BFD
S11315705B68984208D0002914D00C4B1B68002BE0
S113158009D00D2040420CE0084B1960002905D118
S1131590074B984705E0054B196058600121044B3F
S11315A0984710BD0D204042FBE7C046242400208C
S11315B06125000010B50121014B984710BDC046BC
S11315C06125000010B50021014B984710BDC046AD
S11315D06125000070B506000C00150000280DD030
S11315E00800431E9841C0B234220549054B984770
S11315F033682A0021003000984770BD0020F3E7CB
S1131600703D0000851C000070B506000C0015003C
S113161000280DD00800431E9841C0B23D22054960
S1131620054B984773682A0021003000984770BD25
S11316300020F3E7703D0000851C000010B5054B49
S11316409847002803D1044B9847002010BD0D2073
S11316504042FBE7D9260000AD220000F8B5CE4693
S1131660474680B5814603689C46002B05D08E68AA
S11316701C0000250127BF1A0DE0124B984718E003
S1131680FB18A06880464344B3420CD2236825006B
S1131690002B0BD01C0063689342F1D8A0688046ED
S11316A043449B1AF0E7A44507D02C002000064BC6
S11316B098470CBC90469946F8BD4846014B98475C
S11316C0F7E7C046B11C0000DD1C0000F0B5C646BB
S11316D000B582B007004469036901339846036189
S11316E0037EDB0711D4037E9B070ED4002C10D09D
S11316F0434662689B1AA26893420AD314239C4609
S1131700844463460193124E14E03B7E0222134349
S11317103B7602B004BC9046F0BD7D69E3682000CE
S11317209847002DF5D02C0043466A689B1AAA6896
S11317309342EED30198B047237C012BEDD143466D
S11317406360424621000198024B9847E5E7C04692
S1131750E51C00005D16000070B505000C000028B3
S113176011D00800431E9841C0B23B220749084BE0
S1131770984721002800074B984700232B61064B0C
S11317802B60002070BD0020EFE7C046843D0000C0
S1131790851C0000252A0000CD16000010B50400A9
S11317A0431E9841C0B253220749084B9847200072
S11317B0074B9847002804D12000064B9847002087
S11317C010BD11204042FBE7843D0000851C000051
S11317D0CD2B0000B92B000070B582B004000D00C1
S11317E0002824D00800431E9841C0B27A221E4922
S11317F01E4B9847237E012213432376260014367A
S1131800290030001A4B9847002812D123696B60D5
S1131810226929003000174B9847237E0122934305
S11318202376237E00209B070FD402B070BD0020D6
S1131830DCE7237E0122934323767E320A4900208B
S11318400A4B984712204042EFE701A80A4B9847F9
S1131850237E0222934323762000084B984701A855
S1131860074B98470020E0E7843D0000851C0000FA
S11318708D1C00005D16000045130000E52B0000E0
S11318805313000070B582B004000D00002821D06D
S11318900800431E9841C0B295221C491C4B98472E
S11318A0237E0122134323762600143629003000B8
S11318B0184B984700280FD029003000164B984742
S11318C0237E012293432376237E00209B070ED49C
S11318D002B070BD0020DFE7237E0122934323760C
S11318E099320A490A4B98470A204042F0E701A876
S11318F00A4B9847237E0222934323762000084B09
S1131900984701A8074B98470020E1E7843D000071
S1131910851C00008D1C0000F31C00004513000012
S1131920E52B00005313000010B5083800230363AF
S1131930436A002B00D0984710BD10B50838002327
S11319400363C36A002B00D0984710BD10B5040090
S11319502C30044B9847236A083C002B01D020000C
S1131960984710BDD11D000070B504000E0015008D
S113197000281DD000291DD01000431E98413C2290
S1131980FF320F490F4B98474423E25A0833E35A76
S11319909A4211D1A6644C23E5520022083BE2523C
S11319A0433B236320000830074B9847280070BD51
S11319B00020E4E70020E2E71C204042F7E7C046AD
S11319C09C3D0000851C00004129000070B5040006
S11319D001000839838F4C228A5A9A420CD00A009B
S11319E0896C5D1C44201552C95C2000044B984747
S11319F02000044B984770BD034B9847FBE7C04653
S1131A00392900004129000049290000F0B5CE46DB
S1131A10474680B585B005000E001700002815D094
S1131A20002913D0002A2AD1AC22520029490020CF
S1131A30294B984703A8294B984728003430284B52
S1131A40984703A8274B984700253CE0AC22520056
S1131A5020490020204B984703A8204B9847343551
S1131A60280001951E4B9847804603A81D4B9847B4
S1131A7000254346002B26D0002F16D123E0AC22AC
S1131A80520014490120144B984703A8134B98475C
S1131A90343528000195124B9847804603A8114B12
S1131AA0984743460025002B0DD000240E4B994641
S1131AB0651CADB231190198C8470134444502D2BE
S1131AC0A3B29F42F4D8280005B00CBC90469946B6
S1131AD0F0BDC0469C3D0000851C0000451300007D
S1131AE0111E000053130000891D0000F8B5040006
S1131AF00D0016001F00002826D0002926D0002A39
S1131B0026D01800431E98413A221449144B984792
S1131B10200034303A003100124B9847002819D184
S1131B20200008302900104B984700280BD10F4B98
S1131B3063600F4B23600F4BA3600F4BE3600F4BAD
S1131B4023610F4B6361F8BD0020DDE70020DBE774
S1131B500020D9E70D204042F5E7C0469C3D000037
S1131B60851C0000351D0000B12800000D1A00007E
S1131B7069190000CD1900004D1900002919000051
S1131B803B19000010B50400431E9841C0B2612205
S1131B900449054B984720000830044B984700201F
S1131BA010BDC0469C3D0000851C00002529000096
S1131BB070B504000D0000280AD00800431E9841A7
S1131BC0C0B277220349044B98472C60002070BDB3
S1131BD00020F6E79C3D0000851C000070B5050060
S1131BE00E001400431E9841C0B283221649174BBD
S1131BF09847012E11D0002E04D0022E18D00D20AB
S1131C00404209E0AC62621E9441E2B2280008300E
S1131C1001210F4B9847002070BD6C62621E9441F5
S1131C20E2B2280008300221094B98470020F3E76C
S1131C30EC62621E9441E2B2280008300321044B96
S1131C4098470020E8E7C0469C3D0000851C000042
S1131C505129000010B50400431E9841C0B202226D
S1131C60FF320549054B984720003430044B984710
S1131C70431E984110BDC0469C3D0000851C0000D9
S1131C80111E0000002800D100BE70470368002B1D
S1131C900AD08B420AD01B68002B03D09942FAD198
S1131CA0012000E0002070470020FCE70120FAE753
S1131CB070B504000D00064B984701235840C0B28C
S1131CC039220449044B984723682B60256070BD72
S1131CD08D1C0000BC3D0000851C000003680B60E7
S1131CE0016070470368002B01D01A680260180075
S1131CF07047002919D0026891420BD0002A16D0EF
S1131D00136899420AD0002B0DD01A68914206D06C
S1131D101300F8E713680360012003E013000A6866
S1131D201A60012070470020FCE70020FAE7002039
S1131D30F8E7000070B504000E00150000280BD071
S1131D40002918D00120002A07D128220C4900209C
S1131D500C4B98476B1E07E0002028220849094BCA
S1131D6098476B1E2B4208D163600023A360E36095
S1131D702660002070BD0020EFE70D204042F9E707
S1131D80DC3D0000851C000070B504000D00002837
S1131D9015D00800431E9841C0B240220A490B4B9B
S1131DA09847A368E2689A420BD06268134022689D
S1131DB0D35C2B70A3680133A360002070BD0020A6
S1131DC0EBE70A204042F9E7DC3D0000851C0000F7
S1131DD070B504000D00431E9841C0B251220A4957
S1131DE00A4B98476368E26813402268D554E36855
S1131DF06168A2689A1A8A4201D9591AA16001330A
S1131E00E360002070BDC046DC3D0000851C00007E
S1131E1010B50400431E9841C0B267220349044B25
S1131E209847E068A368C01A10BDC046DC3D0000B6
S1131E30851C00000300064A1268002A04D0044AE4
S1131E401068C318136070470249014A1160F6E72D
S1131E502C24002008480020F0B501608B69012281
S1131E6013438B610268012493691C42FCD093697B
S1131E70022423439361354B994210D0026893693D
S1131E8002218B4393610268936901398B43936107
S1131E90016801228B691A42FCD10020F0BD2C4B51
S1131EA01A0001C22B49816101688C698C61016847
S1131EB040248C600168284CCC610168274CCC60BC
S1131EC027490904090C274C2143A02405682951FA
S1131ED000211C34056829510C3405682951224C11
S1131EE02404240C8025AD042C43C02506687451B9
S1131EF01204120C8024A402224330350668725165
S1131F00703D2822066872511A0014321204120C11
S1131F10224384260768BA511C331B041B0C234339
S1131F2088220468A35090230268D1500F4B80226A
S1131F3012025A51BFF34F8FBFF36F8F8131FF31BC
S1131F405A501A6003680122DA6597E7001C0042C0
S1131F503024002000000020030A0306330A000096
S1131F6038260020000002805826002000E100E00E
S1131F700268936901218B439361002070470268D2
S1131F80936901210B43936100207047F0B585B03C
S1131F900368A4229A58520638D01F4A934202D0AA
S1131FA01C20404226E0A423D3589B049B0E1B0113
S1131FB01A4A9B18002B2CD01A6852001CD40022F9
S1131FC04A731A68D200520D0A601A6892001AD431
S1131FD06846134A6C46E0CAE0C4126822605A6834
S1131FE01203120F825C0A738868083319000D4BC0
S1131FF09847002005B0F0BD01224A731A68D20048
S1132000D2080A60E1E701220A71E1E70A204042AE
S1132010F0E71C204042EDE7001C00423826002077
S1132020003E00008930000070B504000368C4223B
S11320309A58920200D57DE0414A934202D01C2076
S113204040422AE0C423D058C002C00E00013D4BD8
S1132050C018002800D170E04B7B012B1ED00B6808
S11320609B0403600B7B082B20D842680F251D407E
S11320702D04354B13402B43436008300A7B896899
S1132080324B98472168C423CB58DB02DB0E012274
S11320909A401300D0228B50002070BD0B6803605F
S11320A002688023DB0513430360DBE70C2B07D8AE
S11320B04368254A1A4090231B0313434360DCE71B
S11320C0102B07D84368204A1A40A0231B0313434C
S11320D04360D2E7142B07D843681B4A1A40B02345
S11320E01B0313434360C8E7182B07D84368164AF9
S11320F01A40C0231B0313434360BEE7202B07D8B9
S11321004368114A1A40D0231B0313434360B4E7C6
S1132110302B07D843680C4A1A40E0231B031343AF
S11321204360AAE7402BA8D84268F0231B0313435B
S11321304360A2E71C204042AFE71C204042ACE7CA
S1132140001C004258260020FFFFF0FF89300000E9
S113215010B5002909D001290ED002290BD102683B
S1132160536D0C490B40536505E001684B6D01202C
S113217083431A434A6510BD01684B6D064C2340E6
S113218052021A434A65026801214942E023D150B0
S1132190F1E7C04601020000FFFDFFFF8069002A4D
S11321A020D18900C2685118002B19D05A680A60DE
S11321B01A680B68520552091848034013430B6010
S11321C00B689B009B088022120613430B600B686C
S11321D0134A1A4080231B0513430B6000207047E9
S11321E00B60FBE7012AF9D1C90002695118002BE1
S11321F012D01A680A600A68D200D20880208005CA
S113220002430A605B684B604B689B009B0880221A
S1132210120613434B60E1E70B60DFE7FFFF00F8B2
S1132220FFFFFFC770B5194B1D682B681C6DE307D2
S113223014D4A30516D4A30118D4E3011BD4230298
S113224007D52B68596C8906C90F01312800EB6842
S11322509847230714D42B681C6570BD2800AB680D
S11322609847E6E728006B689847E4E703212800CD
S1132270EB689847E1E700212800EB689847DEE720
S113228004212800EB689847E5E7C0463024002085
S1132290BFF34F8F034A044BDA60BFF34F8FC0463E
S11322A0FDE7C0460400FA0500ED00E0BFF34F8FE0
S11322B030BF704743B2002B07DB1F2318401E3B7F
S11322C083408022520001498B50704700E100E0B6
S11322D010B50C4B5A685A600B4B98470B4B9847F8
S11322E00B4B98470B4B9847FF200B4B98470B4BD6
S11322F098470B4A136980210B431361094B984794
S113230010BDC0460040004195260000A1260000F3
S113231089260000D5260000292600002923000074
S113232000080040A52300009022D2051378022162
S11323308B431370704710B582B0EFF31083019391
S113234072B69023DB051A780124A2431A709860B0
S1132350D9601A001379DB07FCD49023DB051869D4
S1132360019B83F3108802B010BD000010B582B049
S1132370EFF31083019372B69023DB051A780124DE
S1132380A2431A709860D9601A001379DB07FCD451
S1132390034B18685968019B83F3108802B010BD81
S11323A010000048F0B5254B1A8802218A431A8090
S11323B01A8802318A431A803C315A5C0120024354
S11323C05A54F02212011A805A7B3F398A435A73B5
S11323D000229A735A611A4A5A631A4A9A631A492A
S11323E0002218003F239C4640250127144ED3B2F7
S11323F064460355445D0B789B093B409B01AC4309
S1132400234343554B6843640C8913019C530132A5
S11324100C310C2AEBD10D4A8023D350BFF34F8FDC
S1132420BFF36F8FC021490053501360034A1388D0
S11324307F39FF390B4313800020F0BD0060004159
S11324408026002040270020103E000000E100E02C
S113245010B5134A118C0F230B405800C01880008C
S1132460104908183F2153540F31525CD20705D448
S11324704E220B498A5C920707D410BD01244E22D8
S113248007498C5443689847F7E702244E228C543A
S11324905A00D3189B00034A9B589847EDE7C0465F
S11324A0006000415C2400202A4B5B68DB071FD4DA
S11324B0284903224B681A42FCD1264B1B789B0700
S11324C00ED5244A137802218B4313701100032282
S11324D04B681A42FCD11F4902224B681A42FCD1B4
S11324E001221C4B1A70190002324B681A42FCD1AB
S11324F0184901224B681A42FCD1164A137810215C
S11325008B431370110003224B681A42FCD1114B08
S113251000225A709A609A61DA61A02212041A6247
S11325201A7802210A431A70190003224B681A42CE
S1132530FCD1094B082280215A50BFF34F8FBFF3BF
S11325406F8F0131FF315A501A60044B186000201C
S11325507047C0460028004000E100E0EC24002061
S11325600120404270470000F0B5D646474680B58A
S113257085B0274B5A690392039A5A61254B186810
S1132580431E9841C0B2DA222349244B9847039B47
S1132590002B37D0224B9A46FF24224F01949846B1
S11325A028E0013EF2B291420CD853185B10DEB21F
S11325B02340DB00DB5D834204D09842F1DD013629
S11325C0F1B2F0E7039B2A008240934303930398FC
S11325D0C047013840B2431C04D0019B00260021AF
S11325E00022EAE70A4B5A690392039A5A61039B51
S11325F0002B07D00398D047013840B20125431C73
S1132600EBD1EFE705B00CBC90469A46F0BDC0464E
S113261000280040EC240020A83E0000851C000097
S1132620C52F0000A03E0000C30707D5134A144B72
S11326301A621900134A4B681342FCD1830707D569
S11326400E4A0F4B5A6219000E4A4B681342FCD1D2
S1132650430707D5094A0A4B9A621900094A4B688D
S11326601342FCD1030707D5044A054BDA6219006B
S1132670044A4B681342FCD17047C0460001010074
S1132680001C0040FD0700000122014B1A71704735
S1132690000800400122014B1A61704700140040F9
S11326A00A4B0B4A1A820022DA7419000132CB68F1
S11326B01A42FCD0054B1A8A802109010A431A8266
S11326C01A8A80210A431A827047C04600100040CB
S11326D00603000070470000022803D00BD3031F39
S11326E0022B08D805494B7807229343104018431E
S11326F04870002070470D204042FBE70004004072
S113270010B58469237EDB0702D5A37DDB070FD4D4
S1132710237E9B0702D5A37D9B070ED4237E5B07F4
S113272015D5628B37231A420CD04833638310BD0E
S11327300123237503689847F9E702232375836807
S11327409847F4E7218DC9B243689847EFE7237EA1
S1132750DB09ECD080232376C3689847638B9BB254
S11327606383E4E7064B984203D0064B984203D0B8
S11327707047054B1960FBE7034B5960F8E7C04607
S1132780000C004200100042F024002010B50400A8
S1132790424BC3189B0ADBB2022B53D0032B53D0FA
S11327A03F4A40490020404B98470020E369DB073B
S11327B021D483001B189B003C4AD318D9691C23DD
S11327C019400322E3691A42FCD123689B070BD505
S11327D023680222934323600323E2691342FCD15A
S11327E00223E2691342FCD101230B432360032239
S11327F0E3691A42FCD10122E3691A42FCD10100C7
S113280083001B189B00294AD318D869206003222F
S1132810E3691A42FCD18B005B189B00234AD3184E
S11328201B6A63600722E3691A42FCD1C023DB01FF
S113283018420BD18B005B189B001C4AD3189B8C4D
S1132840A3811AE00020B1E70120AFE78A00521803
S11328509300164AD218908CA389C004C00C5B0B59
S11328605B030343A3812632137807221A40A3890A
S11328705203DB04DB0C1343A3810C4A8800431886
S11328809B00D31827331B78A3734118890052186F
S1132890283212783023E254002010BD00FCFFBD22
S11328A067020000003F0000851C0000C03E0000DD
S11328B070B506000C00431E9841C0B2C6221349ED
S11328C0134B98472000134B9847051E01D028004E
S11328D070BDB461310020000F4B98470F4B9C46EC
S11328E06444A40A0934E3B22206F0D41F221A4035
S11328F0012393400A4A80215350BFF34F8FBFF303
S11329006F8F0131FF3153501360E0E7003F000047
S1132910851C00008D2700006527000000FCFFBD1A
S113292000E100E08269136802210B431360013166
S1132930D3691942FCD17047836989B219857047FC
S1132940836901229A757047836902229A757047D8
S113295070B504000D001600431E9841C0B2164A1B
S11329601649174B984702232A009A430ED1A369AC
S1132970002E05D101221A75A36901321A7570BDA2
S113298001229A75A36901329A75F8E7012D07D0DF
S1132990032DF4D1A369002E0BD080229A75EEE7A3
S11329A0A369002E02D104221A75E8E704229A755D
S11329B0E5E780221A75E2E727020000003F0000E5
S11329C0851C000010B5024B1868024B984710BDD7
S11329D0F02400200127000010B5024B5868024B78
S11329E0984710BDF02400200127000010B5094BC2
S11329F0984206D0084B9C466044800AC0B2002826
S1132A0007D09E22520005490020054B984701201B
S1132A10404210BD0040004200D0FFBD303F0000E6
S1132A20851C000070B506000C0008005B4B98473D
S1132A300500F4608D225A4901205A4B98472369B6
S1132A40DB0718D4032223691A42FCD123689B07AD
S1132A500BD52368022293432360013223691A426F
S1132A60FCD1022223691A42FCD1012323600322F0
S1132A7023691A42FCD1012223691A42FCD1AB001A
S1132A805B199B00484AD3185968216003222369C3
S1132A901A42FCD1AB005B199B00434AD3189A7AC3
S1132AA0E2731B89E380012323730B330B40082B50
S1132AB03FD0002B4FD1AB005B199B003A4AD3188F
S1132AC09B89A383C02223691A42FCD10023E38398
S1132AD0C02223691A42FCD101236372334B9C4206
S1132AE058D0AB005B199B002F4AD3185B785BB2BC
S1132AF0002B1CDB1F221A400123934080222C4907
S1132B008B50BFF34F8FBFF36F8FAB005D19AD00D8
S1132B10254B5D190123EB56002B08DB613A1A4063
S1132B20012393400A00C021490053501360002040
S1132B3070BDAB005B199B001B4AD318DB68E361D3
S1132B40C02223691A42FCD100232362C0222369D4
S1132B501A42FCD1C0E7042BBED1AB005B199B0029
S1132B60114AD3181B7B2377C02223691A42FCD154
S1132B7000236377C02223691A42FCD1AB005B199E
S1132B809B00094AD318DB7AE376202223691A4290
S1132B90FCD1A1E7074B1E60A3E7C046ED29000066
S1132BA0303F0000851C00001C3F00000030004244
S1132BB000E100E0F8240020C268136802210B43FE
S1132BC01360013113691942FCD17047C2680321B3
S1132BD013691942FCD110688007C00F70470020A8
S1132BE07047000010B5C068084B984704001022D5
S1132BF0FF3207490120074B9847A00000198000C5
S1132C00054B18184078054B984710BDED29000076
S1132C10303F0000851C00001C3F0000B52200006E
S1132C2010B5064B1868C3689A7AD20700D410BD51
S1132C3001229A7203689847F9E7C046F8240020F5
S1132C4010B5041E25D00068431E9841C0B250221E
S1132C501449154B984723680E219A681142FCD1F8
S1132C601A78D20917D10E219A681142FCD11A7828
S1132C70920713D41A7804218A431A700A319A6885
S1132C801142FCD1226853780F218B4353700020EA
S1132C9010BD0020DBE711204042F9E7112040423B
S1132CA0F6E7C046443F0000851C000070B50400F0
S1132CB00E001500002837D00068431E9841C0B2AA
S1132CC07A223C493C4B984724680E22A3681A4256
S1132CD0FCD12378DB0964D10E22A3681A42FCD10B
S1132CE023789B0760D43200002328000021334D51
S1132CF0A84700295BD1FA239B02984243D015D9F7
S1132D00FA235B03984242D02FD9FA23DB0398427B
S1132D1041D0FA231B0498423FD0FA239B039842E4
S1132D2037D00D20404215E00020C9E7FA23DB012B
S1132D30984224D00FD8FA235B0198422FD0FA236B
S1132D409B0101229842ECD163780F218B431343FA
S1132D506370002070BDFA231B02984211D0FA233D
S1132D605B0204229842EFD0DBE7FA23DB029842AD
S1132D700BD0FA231B0307229842E5D0D1E70222A5
S1132D80E2E70322E0E70522DEE70622DCE7082289
S1132D90DAE70922D8E70A22D6E70B22D4E7002291
S1132DA0D2E711204042D5E711204042D2E70D205E
S1132DB04042CFE7443F0000851C0000712F000013
S1132DC010B5041E12D00068431E9841C0B2FB2205
S1132DD00749084B98472268137802210B43137064
S1132DE00C3193681942FCD1002010BD0020EEE79D
S1132DF0443F0000851C000010B5041E1AD0006872
S1132E00431E9841C0B2842252000D490D4B98478D
S1132E1023680E219A681142FCD11A78D2090BD189
S1132E201A7802218A431A700C319A681142FCD133
S1132E30002010BD0020E6E711204042F9E7C0461B
S1132E40443F0000851C000010B5041E11D000682A
S1132E50431E9841C0B21A22FF320749074B9847D4
S1132E602268A5231373102193681942FCD1002012
S1132E7010BD0020EFE7C046443F0000851C000061
S1132E80C023DB05802212059A619A608223DB0548
S1132E908022D2059A62014A9A627047000800C0F3
S1132EA070B5234B9847234B9847234B98472348A7
S1132EB0234B9847234B9847234B9847234D244C47
S1132EC02068431E9841C0B26F222900214EB047AA
S1132ED080225201FA21890020001F4B9847206864
S1132EE0431E9841C0B28C222900B04720001B4BDE
S1132EF098472068431E9841C0B2A9222900B047D0
S1132F002000174B9847174B9847104D104C114E03
S1132F102068431E9841C0B2A9222900B04720006E
S1132F200F4B9847104B9847104B9847F0E7C04613
S1132F301D010000B1030000B10F00001C26002099
S1132F409D170000812E0000990200001039000036
S1132F5078250020851C0000AD2C0000C12D000048
S1132F60492E0000350300008D040000C10D00004F
S1132F70F0B5CE46474615042D0C2E0080B5070447
S1132F80140C3F0C9946030C7E435D436743634333
S1132F907F19340CE4199C46A54203D980235B02B3
S1132FA09846C4444B46514343433604360C250CDF
S1132FB024046544A4195918491920000CBC9046EE
S1132FC09946F0BD10B50023002802D000F004F8A3
S1132FD0431C180010BDC046414208401C21012377
S1132FE01B04984201D3000C10391B0A984201D3E8
S1132FF0000A08391B09984201D30009043902A2C6
S1133000105C401A7047C0461B1C1D1D1E1E1E1E50
S11330101F1F1F1F1F1F1F1F70B500260C4D0D4CB7
S1133020641BA410A64209D1002600F0E1FF0A4D5A
S11330300A4C641BA410A64205D170BDB300EB5822
S113304098470136EEE7B300EB5898470136F2E7AC
S1133050FC3F0000FC3F0000FC3F0000004000007B
S113306010B5034B0100186800F062F810BDC046AB
S11330701400002010B5034B0100186800F00EF88E
S113308010BDC04614000020002310B59A4200D1A0
S113309010BDCC5CC4540133F8E7000070B50500E2
S11330A0002910D00C1F2368002B00DAE418280034
S11330B000F0F2F81D4A1368002B05D16360146018
S11330C0280000F0EAF870BDA34209D9216860180D
S11330D08342F3D118685B6841182160EEE713005E
S11330E05A68002A01D0A242F9D919685818A04296
S11330F00BD120680918581819608242E0D1106871
S11331005268411819605A60DAE7A04202D90C23C8
S11331102B60D5E721686018824203D11068526899
S11331204118216062605C60CAE7C046FC2400204C
S1133130032370B5CD1C9D43083506000C2D1ED20B
S11331400C25A9421DD8300000F0A6F8254A1468C1
S11331502100002919D1244C2368002B03D130000D
S113316000F044F820602900300000F03FF8431CD0
S11331702CD10C233000336000F08FF803E0002DD5
S1133180DFDA0C233360002070BD0B685B1B1AD49C
S11331900B2B03D90B60CC18256003E08C420ED1B5
S11331A063681360300000F078F8200007220B30C9
S11331B0231D9043C31AE7D05A42E250E4E74B6818
S11331C063600C00EEE70C004968C2E70323C41CEB
S11331D09C43A042E0D0211A300000F007F8431CC1
S11331E0DAD1C6E7FC24002000250020002370B5B6
S11331F0064C050008002360FEF71CFE431C03D1A7
S11332002368002B00D02B6070BDC046002800202E
S11332100023C25C0133002AFBD1581E704710B54D
S113322002000078002804D1097800290DD010BDCF
S1133230013210780028FAD00023C85C002804D09A
S1133240D45C8442F4D10133F7E71000EFE70000C7
S113325030B59BB00091049108496D4602910591E7
S1133260012182244942E981A4006946AC8100F02D
S113327077F80023009A13701BB030BDFFFFFF7F67
S113328010B513000A00010002480068FFF7E0FFD0
S113329010BDC0461400002070477047F0B58E681A
S11332A085B007000C00039201939E4239D8902305
S11332B08A89DB001A4234D00325096923685B1A22
S11332C00293636902985D43EB0F5D19019B6D10D6
S11332D001331B18AB4200D91D00530532D5290018
S11332E03800FFF725FF061E09D10C233B6040235D
S11332F00120A28940421343A38105B0F0BD029A84
S11333002169FFF7C1FEA389144A1A40802313439D
S1133310A381029B2661F61826606561019EED1A61
S1133320A560019BB34200D21E00320003992068BD
S113333000F0ADFAA36800209B1BA36023689E19CC
S11333402660DAE72A00380000F0B3FA061EE0D15E
S113335021693800FFF7A2FEC7E7C0467FFBFFFFE5
S1133360F0B59FB0029005938B890F0016001B06E1
S113337011D50B69002B0ED14021FFF7D9FE38601F
S11333803861002805D10C23029A013813601FB05C
S1133390F0BD40237B61002306AD6B6120336B7667
S11333A01033AB7634002378002B47D1A31B04934E
S11333B00DD0A31B320039000298FFF76FFF431CA6
S11333C000D1B5E06A69049B944663446B61237839
S11333D0002B00D1ACE00122002352426A6002A912
S11333E05432521801342B60EB60AB601370AB6540
S11333F0584E05222178300000F03EFA621C002865
S113340020D12968CB0604D5532302AE20309B1962
S113341018700B0704D553232B2002AE9B19187088
S113342023782A2B16D000200A21099B2278303ACF
S1133430092A55D9002815D0099313E0252BB5D0B6
S11334400134B0E70123801B8340296814000B4337
S11334502B60CDE7059B181D1B680590002B39DBFD
S11334600993140023782E2B0BD16378621C2A2B2A
S11334703ED1059B02341A1D1B680592002B34DBD8
S11334800793354E21780322300000F0F5F9002827
S113349006D04023801B83402A68013413432B60E9
S11334A0217806222D48661C297600F0E5F90028CB
S11334B046D02B4B002B2FD12968059B0722C90529
S11334C028D59B189343083305936B69039A9B187B
S11334D06B6167E75B42EB6002230B432B60C0E741
S11334E04B4301349B180120A0E701235B42C7E74B
S11334F0002314000A201A006B602178303909294E
S113350003D9002BBDD00792BBE7424301345218C4
S11335100123F2E70733D5E705AB00933A00114BDB
S11335202900029800E000BF0390039B0133CCD133
S1133530BB890B985B0600D429E70120404226E7AB
S113354005AB00933A00074B2900029800F07AF883
S1133550EAE7C046BC3F0000C23F0000C63F00008F
S1133560000000009D320000F7B5150001938A6841
S11335700B6900900C00934200DA130022002B60C8
S113358043321278002A01D001332B6023689B0652
S113359002D52B6802332B60062723681F4027D0EF
S11335A0230043331B785A1E93412268920630D479
S11335B02200019943320098089EB047431C25D04D
S11335C0062320682A68E16803400025042B03D100
S11335D08D1AEB43DB171D40A3682269934201DD7A
S11335E09B1AED180027BD4220D1002010E00137BE
S11335F0E3682A689B1A9F42D2DA22000123193217
S113360001990098089EB047431CF0D10120404224
S1133610FEBD3020E1184331087021005A1C4531A9
S11336200978A218433202331170C1E72200012342
S11336301A3201990098089EB047431CE6D001371E
S1133640D1E70000F0B58BB006920A00433207932D
S1133650059004920A7E0C00109B6E2A00D18FE024
S113366017D8632A2CD008D8002A00D199E0582A08
S113367054D026004236327029E0642A01D0692AE7
S1133680F7D121681A68080623D5111D1960156839
S113369025E0732A00D188E008D86F2A29D0702A3F
S11336A0E7D1202209680A43226003E0752A20D06A
S11336B0782ADED122007821453211706C4A30E03C
S11336C00E001A684236111D196013683370012305
S11336D079E04906D9D5111D19600023D55E002D66
S11336E003DA2D23049A6D421370624B0A27039365
S11336F02FE020681968050603D5081D18600D68B9
S113370005E04006F9D50D68081D1860ADB2594BA7
S1133710082703936F2A18D00A2716E045310A7048
S1133720544A03921A682168101D18601568080627
S113373022D5CB0702D52023194321601027002D61
S113374003D1202322689A432260230000224333BA
S11337501A706368A360002B5CDB04222168914328
S11337602160002D58D1049E002B64D02600039BB9
S113377042361B7833705EE04806DAD5ADB2D8E73E
S113378009681A68080605D5111D1960136862696D
S11337901A6006E04906F7D5111D19601368A28A5C
S11337A01A800023049E236154E01A68111D1960D5
S11337B0166800216268300000F05EF8002801D02D
S11337C0801B6060636823610023049A137041E0E6
S11337D02369320006990598079DA847431C43D0E6
S11337E0236800259B070FD4099BE06898423DDAC3
S11337F018003BE022000123193206990598079E20
S1133800B047431C30D00135E368099A9B1A9D42A6
S1133810F0DBE9E7002DA9D0049E28003900FEF76B
S1133820A5FD039B013E5B5C280033703900FEF765
S113383082FD051EF1D1082F09D12368DB0706D5C7
S113384063682269934202DC3023013E3370049B97
S11338509B1B2361079B09AA00932100069B0598E3
S1133860FFF782FE431CB3D1012040420BB0F0BDF0
S1133870DE3F0000CD3F0000C9B28218904201D162
S11338800020704703788B42FBD00130F6E710B577
S1133890884202D98B18984208D300239A4207D051
S11338A0CC5CC4540133F9E78B5C8354013AFBD2FA
S11338B010BDF8B507000D001600002905D1110050
S11338C0FFF736FC04002000F8BD002A03D1FFF7FF
S11338D0E5FB3400F7E700F012F82C008642F2D939
S11338E031003800FFF724FC041EECD0290032001C
S11338F0FFF7CAFB29003800FFF7D0FBE3E70B1FF3
S11339001B68181F002B01DA0B58C0187047000001
S11339102E2E2F68616C2F696E636C7564652F6839
S1133920616C5F7764742E680000000066706761E4
S11339305F7265626F6F7420737563636573730D73
S11339400A000000667067615F7265626F6F7420C1
S11339506661696C65643A2064656C617920746998
S11339606D6520746F6F206C6F770D0A0000000086
S1133970656E61626C65000064697361626C650008
S1133980656C6F67207772697465206572726F72F7
S11339900D0A0000656C6F675F70726F6365737307
S11339A0206572726F723A72656164206572723D4D
S11339B025640D0A00000000656C6F677374617202
S11339C074000000656C6F672073746172740D0A73
S11339D000000000656C6F6773746F700000000076
S11339E0656C6F672073746F700D0A00666C3D65BB
S11339F06E000000636F6E66696720667067612DF4
S1133A006C6F6F706261636B3A656E61626C650DB9
S1133A100A000000666C3D6469730000636F6E66A3
S1133A20696720667067612D6C6F6F706261636B8C
S1133A303A64697361626C650D0A00006332663D25
S1133A40656E0000636F6E6669672063616E2D7436
S1133A506F2D667067613A656E61626C650D0A0070
S1133A606332663D64697300636F6E6669672063E1
S1133A70616E2D746F2D667067613A64697361625B
S1133A806C650D0A000000006632633D656E00003F
S1133A90636F6E66696720667067612D746F2D634E
S1133AA0616E3A656E61626C650D0A006632633D53
S1133AB064697300636F6E66696720667067612D61
S1133AC0746F2D63616E3A64697361626C650D0A8B
S1133AD0000000006632653D656E0000636F6E662F
S1133AE0696720667067612D746F2D656C6F673A26
S1133AF0656E61626C650D0A000000006632653D0A
S1133B0064697300636F6E66696720667067612D10
S1133B10746F2D656C6F673A64697361626C650DCF
S1133B200A000000676574737973636667000000B8
S1133B30666C3D25732C206632633D25732C20630F
S1133B4032663D25732C206632653D25730D0A00CF
S1133B50667067612D706F7765726F6E000000008C
S1133B60706F7765726F6E667067610D0A00000092
S1133B70667067612D706F7765726F66660000000E
S1133B80706F7765726F666620667067610D0A00F4
S1133B90667067612D7265626F6F7400667067612D
S1133BA020706F776572646F776E2E2E2E0D0A006B
S1133BB06765742D63616E2D636E74005B43414EC3
S1133BC05D7263763A25642C2073656E643A2564CD
S1133BD00D0A00006765742D667067612D636E744D
S1133BE0000000005B465047415D3A7263763A2517
S1133BF0642C2073656E643A25640D0A000000008D
S1133C006765742D6C6973742D64656570000000BC
S1133C105B444545505D667067613A256C642C20B1
S1133C20656C6F673A256C640D0A00007379732D17
S1133C307265736574000000676F736C656570006E
S1133C406765742D77616B657372630077616B656B
S1133C50757020666C61673A25640D0A00000000E7
S1133C60656C6F675F70726F6365737320657272E2
S1133C706F723A6F76657220666C6F770D0A00007A
S1133C80656C6F673A207772697465206C6F6F702A
S1133C902D6172726179206572726F722C20657861
S1133CA069740D0A000000006C6F6F702D617272F0
S1133CB061792072656164206F76657220666C6F2D
S1133CC0773A72643D256C642C2077723D256C64D0
S1133CD02C206C656E203D20256C640D0A000000CC
S1133CE0120E0000240E00003E0E0000640E0000C0
S1133CF0800E0000CC250020667067615F756172DC
S1133D00743A207772697465206C6F6F702D6172DC
S1133D10726179206572726F720D0A0063616E5F61
S1133D206173796E635F7772697465206572726F0F
S1133D30723A25640D0A00007472616E736D6974C1
S1133D4020667067612064617461206661696C65D6
S1133D50640D0A002E2E2F68616C2F7372632F6816
S1133D60616C5F63616E5F6173796E632E630000E3
S1133D702E2E2F68616C2F7372632F68616C5F69DC
S1133D806F2E63002E2E2F68616C2F7372632F6861
S1133D90616C5F74696D65722E6300002E2E2F684E
S1133DA0616C2F7372632F68616C5F7573617274D9
S1133DB05F6173796E632E63000000002E2E2F68FE
S1133DC0616C2F7574696C732F7372632F757469CA
S1133DD06C735F6C6973742E630000002E2E2F6861
S1133DE0616C2F7574696C732F7372632F757469AA
S1133DF06C735F72696E676275666665722E6300C6
S1133E000001020304050607080C101418203040B2
S1133E10020000006008000000080000020000002A
S1133E200009000000040000000000000000000081
S1133E30000000000000000000000000000000007E
S1133E40000000000000000000000000000000006E
S1133E50000000000000000000000000000000005E
S1133E60000000000000000000000000000000004E
S1133E70000000000000000000000000000000003E
S1133E80000000000000000000000000000000002E
S1133E90000000000000000000000000000000001E
S1133EA0FF000000FFFFFFFF2E2E2F68706C2F65B0
S1133EB069632F68706C5F6569632E63000000009E
S1133EC000000000000000000000000000000000EE
S1133ED00000000000000000020000000400104088
S1133EE00000030082E20000000000000300000064
S1133EF0040010400000030082E200000000000003
S1133F002E2E2F68706C2F736572636F6D2F68701F
S1133F106C5F736572636F6D2E63000000140000A4
S1133F201804000004010000E80300000000000081
S1133F302E2E2F68706C2F74632F68706C5F7463FF
S1133F402E6300002E2E2F68706C2F7764742F68F8
S1133F50706C5F7764742E63000000000000000042
S1133F60000000000000000000000000000000004D
S1133F70000000000000000000000000000000003D
S1133F80000000000000000000000000000000002D
S1133F90000000000000000000000000000000001D
S1133FA0000000000000000000000000000000000D
S1133FB0000000000000000000000000232D302B52
S1133FC02000686C4C006566674546470030313216
S1133FD0333435363738394142434445460030316D
S1133FE032333435363738396162636465660000CC
S1133FF0F8B5C046F8BC08BC9E467047E500000012
S1134000F8B5C046F8BC08BC9E467047BD00000029
S11340103826002058260020342400204424002080
S11340204C24002018000020000000007C3F000009
S11340309C3F00005C3F0000000000000000000006
S1134040000000000000000000000000000000006C
S1134050000000000000000000000000000000005C
S1134060000000000000000000000000000000004C
S1134070000000000000000000000000000000003C
S10B4080000000000000000034
S9030000FC
